:020000040800F2
:10000000600E00209D01000825380008A534000876
:10001000213800086B070008654700080000000051
:10002000000000000000000000000000DD3B0008B0
:10003000130C000800000000493A0008313D000898
:10004000B7010008B7010008B7010008B7010008B0
:10005000B7010008B7010008B7010008B7010008A0
:10006000B7010008B7010008B7010008B701000890
:10007000B7010008B7010008B7010008B701000880
:10008000F90A0008B7010008B70100088107000855
:1000900071070008B7010008B7010008B7010008A0
:1000A000B7010008B7010008B7010008B701000850
:1000B000B7010008513E0008613E0008B701000882
:1000C000B7010008B7010008B7010008B701000830
:1000D000B7010008354700084547000855470008A4
:1000E000B7010008B7010008B7010008B701000810
:1000F000B7010008B7010008B7010008B701000800
:10010000B7010008B7010008713E0008B7010008F8
:10011000B7010008B7010008813E0008B7010008D8
:10012000B7010008B7010008B7010008B7010008CF
:10013000B7010008B7010008B7010008B7010008BF
:10014000B7010008B7010008B7010008B7010008AF
:10015000B7010008B7010008B7010008B70100089F
:10016000B7010008B7010008B7010008B70100088F
:10017000B7010008B7010008B7010008000000003F
:10018000B7010008B7010008DFF80CD000F0B0FAA2
:1001900000480047E54D0008600E002006488047F3
:1001A00006480047FEE7FEE7FEE7FEE7FEE7FEE75C
:1001B000FEE7FEE7FEE7FEE7ED3D000889010008E7
:1001C0002DE9F05F0546002092469B46884606468C
:1001D000814640241BE0284641464746224600F01F
:1001E000D0F953465A46C01A914110D311461846C9
:1001F000224600F0B7F92D1A67EB01084F46224658
:100200000120002100F0AEF917EB00094E41201E3D
:10021000A4F10104DFDC484631462A464346BDE8E6
:10022000F09FD2B201E000F8012B491EFBD27047CB
:100230000022F6E710B513460A4604461946FFF7B2
:10024000F0FF204610BD2DE9FE4F804681EA0300F5
:10025000C00F0C46009021F0004123F00045B8EBA0
:100260000200A94105D24046214690461C460B4655
:10027000024623F00040104347D0270DC7F30A0081
:10028000C3F30A510290401A019040286BDAC3F37D
:10029000130040F4801B0098924620B10023D2EB5B
:1002A000030A63EB0B0B01985946C0F1400250461C
:1002B00000F058F906460D4650465946019A00F09E
:1002C00070F910EB08006141002487EA115284EABA
:1002D000E7731A4340D0009A62B3019A012A4FEAA9
:1002E000075215DC001B61EB02014FF0004202EAED
:1002F0000752CDE90042001C41F5801132462B46E1
:1003000000F0A7F903B0BDE8F08F40462146F9E7B9
:10031000001B61EB0201001C41F5801300185B41DA
:100320002018A2F5001747EB030140EAD570B61973
:100330006D4111E06D084FEA360645EAC0754FEA97
:100340000752001B61EB0201001C41F580114908B6
:100350004FEA30000019514132462B4603B0BDE848
:10036000F04F00F067B90098012240000023D0EB65
:10037000020263EBE073009821464FEAE074B8EBA9
:10038000000061EB0401E9E783F000435BE781F0E3
:10039000004158E72DE9F04D81EA030404F0004BD9
:1003A00021F0004514464FF0000A23F0004150EAC6
:1003B000050220D054EA01021DD0C5F30A570246B7
:1003C000C5F31303C1F31300C1F30A5640F48015BB
:1003D00043F48013A7EB0608101BD64608F2FD383D
:1003E00073EB050002D308F1010801E092185B41AC
:1003F000B8F1000F03DA00200146BDE8F08D0020BF
:100400004FF48011064684460EE0171B73EB050778
:1004100005D3121B63EB050306434CEA010C4908A4
:100420004FEA300092185B4150EA0107EDD152EAE1
:10043000030012D082EA040083EA0501084305D0D4
:10044000101BAB4106D20122002306E000224FF030
:10045000004302E06FF0010253101AEB06004CEB70
:10046000085110EB0A0041EB0B01BDE8F04D00F024
:10047000E1B8C1F30A5210B5C1F3130140F2FF33E2
:1004800041F480119A4201DA002010BD40F233435A
:100490009A42A2F2334203DC524200F072F810BDDD
:1004A000904010BD00F0004230F000400AD0C10D75
:1004B00001F56071C0F3160042EA0151C20840071D
:1004C00011437047002001467047000030B5041EFC
:1004D00071F1000404DB4FF00044404264EB010181
:1004E000141E73F1000405DB1C464FF0004352421A
:1004F00063EB04038B4208BF824230BD30B5041E5B
:1005000071F1000404DB4FF00044404264EB010150
:10051000141E73F1000405DB1C464FF000435242E9
:1005200063EB0403994208BF904230BD01F00043E1
:1005300030B421F0004150EA010206D00A0DA2F5C4
:100540006072C1F31301002A02DC30BC0020704746
:10055000440F44EAC104C100E01830BC00EBC250B3
:1005600000F031B8202A04DB203A00FA02F1002022
:1005700070479140C2F1200320FA03F319439040E1
:100580007047202A04DB203A21FA02F0002170474C
:1005900021FA02F3D040C2F12002914008431946EB
:1005A0007047202A06DBCB17203A41FA02F043EAD3
:1005B000E07306E041FA02F3D040C2F1200291401C
:1005C0000843194670470029A8BF7047401C4900DE
:1005D00008BF20F00100704710B4B0FA80FC00FAA8
:1005E0000CF050EA010404BF10BC704749B1CCF1D3
:1005F000200421FA04F411FA0CF118BF012121435F
:100600000843A3EB0C01CB1D4FEA00614FEA102019
:1006100042BF002010BC704700EBC35010440029BB
:10062000A4BF10BC7047401C490008BF20F0010067
:1006300010BC704710B5141E73F1000408DA401C9A
:1006400041F1000192185B411A4301D120F00100F1
:1006500010BD2DE9F04D92469B4611B1B1FA81F2E1
:1006600002E0B0FA80F220329046FFF77BFF0446AA
:100670000F4640EA0A0041EA0B0153465A46084336
:1006800013D0114653EA010019D0C8F14002504678
:10069000FFF777FF05460E46504659464246FFF79C
:1006A00061FF084305D0012004E020463946BDE83B
:1006B000F08D0020054346EAE0762C4337430A9844
:1006C0006305E40AA0EB08000022FD0A44EA47544F
:1006D0000A3002D500200146E9E7010510196941F9
:1006E000DDE9084500196941BDE8F04DA2E70000C9
:1006F000064C074D06E0E06840F0010394E807006F
:1007000098471034AC42F6D3FFF742FD145100086D
:100710003451000870B58C1810F8015B15F0070310
:1007200001D110F8013B2A1106D110F8012B03E08A
:1007300010F8016B01F8016B5B1EF9D12B0705D492
:100740000023521E0DD401F8013BFAE710F8013BDB
:10075000CB1A921C03E013F8015B01F8015B521EF7
:10076000F9D5A142D8D3002070BD00BFFEE700003C
:1007700010B5024800F06CFC10BD00000C04002015
:1007800010B5024800F064FC10BD00000C0400200D
:100790002DE9F04104460D46002700260DB9666B91
:1007A00000E0A66B206800F5D87000EB051000682B
:1007B00000F00400B060B06858B9206800F5D87047
:1007C00000EB0510006840F2FF7101EA5050306004
:1007D0000AE0206800F5D87000EB051000686FF0A3
:1007E000604101EAD0007060206800F5D87000EB2D
:1007F0000510006800F00200F060206800F5D87075
:1008000000EB0510406800F00F0030613562206891
:1008100000F5D87000EB05104068C0F30720F061C8
:10082000206800F5D87000EB0510806830752068EE
:1008300000F5D87000EB05108068010A717520681A
:1008400000F5D87000EB05108068010CB1752068C8
:1008500000F5D87000EB05108068000EF075206878
:1008600000F5D87000EB0510C0683076206800F500
:10087000D87000EB0510C068010A7176206800F599
:10088000D87000EB0510C068010CB176206800F547
:10089000D87000EB0510C068000EF0764DB920202E
:1008A0002168C8602068406920F00A00216848611A
:1008B00008E02020216808612068406920F050008D
:1008C0002168486194F83C70222F01D0322F05D165
:1008D0002068406920F40F4021684861CDB994F840
:1008E0003C00422804D0622806D072280CD107E0D0
:1008F000122084F83C000BE0322084F83C0007E032
:10090000522084F83C0003E0012084F83C0000BF42
:1009100019E094F83C00522804D0622806D07228CE
:100920000CD107E0122084F83C000BE0222084F870
:100930003C0007E0422084F83C0003E0012084F8FA
:100940003C0000BF00BF204600F064FE0020BDE870
:10095000F08110B504462068406920F0010021684C
:10096000486194F83C00122805D12068406920F4C1
:100970000F402168486194F83C00422804D0522876
:1009800006D072280CD107E0222084F83C000BE04E
:10099000322084F83C0007E0622084F83C0003E049
:1009A000012084F83C0000BF00BF204601F058F849
:1009B000002010BD70B505460C462078617840EAED
:1009C0000120C0F30A0028806078C010A17840EAB6
:1009D0004110C0F30A006880A0788011E17840EAF5
:1009E0008100217940EA8120C0F30A00A8802079A3
:1009F0004010617940EAC110C0F30A00E8806079D4
:100A00000011800828726079C0F301106872A07923
:100A1000E17940EA012000B26881207A617A40EAF7
:100A2000012001B2A981A07AE17A40EA012001B255
:100A3000E981217B2974617B6974A07BE17B40EAB9
:100A40000120688201F0F2FA074908600846006850
:100A500006490968401AB0F5FA7F03D902480068D0
:100A60000249086070BD000004000020080000205A
:100A70001A4890ED100A1A4880ED000A194890EDC6
:100A8000100A174880ED010A174890ED100A144823
:100A900080ED020A90ED010A144880ED000A114829
:100AA00090ED100A114880ED010A0D4890ED000A02
:100AB0000F4880ED000A094890ED100A0C4880EDBF
:100AC000010A074890ED020A0A4880ED000A06482C
:100AD00090ED100A074880ED010A70474008002099
:100AE00088090020F80700208808002074000020F2
:100AF0006C0000207C00002010B5024800F0C6FF0A
:100B000010BD000028060020014608781038182380
:100B1000B0FBF3F20848805CC865032A05D9086871
:100B20006FF30900001D886503E008686FF3090092
:100B30008865886D704700000C5100080146002050
:100B40008A6A8B69CBB932B1012A0DD0022A03D04F
:100B5000032A10D10EE000BFCB6A03F08073B3F11B
:100B6000807F00D1012007E0CB6AB3F1C07F00D1C4
:100B7000012001E000E000BF34E08B69B3F5005FC5
:100B80001AD132B1012A07D0022A03D0032A11D187
:100B90000AE000BF01200EE0CB6A03F08073B3F1DE
:100BA000807F00D1012006E0CB6AB3F1C07F00D185
:100BB000012000E000BF15E032B1012A05D0022A71
:100BC00004D0032A0CD103E000BF00BF012008E0DD
:100BD000CB6A03F08073B3F1807F00D1012000E085
:100BE00000BF00BF704730B50468246824F4802437
:100BF00005682C60046863608468402C04D1046834
:100C0000A2600468E16003E00468A1600468E26037
:100C100030BD704770B500220023046844604C6BFF
:100C2000647D4D6B2D7D44EA0524046004684568AD
:100C3000641BC460C468434DAC4207DA846B641C17
:100C40008463C46804F50054C4610EE0C46841F6CE
:100C50004C55AC4207DD846B641E8463C468A4F504
:100C60000054C46101E0C468C4610568846B05EB8D
:100C70004434846004688569641B00EE104AB8EE51
:100C8000C00ADFED310A20EE200A9FED301AC0EED7
:100C9000010A846B4FF4B4756C4300EE104AB8EE51
:100CA000C00A30EE800A80ED100AC669047D651C1A
:100CB000057500F1200545F82460047D062C01D15E
:100CC00000240475002205E000F1200454F82240BD
:100CD0002344521C062AF7DB062493FBF4F4C46376
:100CE0004C6B2468B4F5007F04D84C6B2468B4F5D1
:100CF000017F25D84C6BA47D04F0800494B14C6B2B
:100D0000E57DA47D45EA04244FF6FF752C1BE443E2
:100D1000132594FBF5F400EE104AB8EEC00A80EDFE
:100D2000110A0DE04C6BE57DA47D45EA04241325F2
:100D300094FBF5F400EE104AB8EEC00A80ED110AFB
:100D400070BD0000B4E2FFFF0000B44300000046A5
:100D5000704710B540F2DC5004F07AF810BD10B5C1
:100D60004FF47A7004F074F810BD10B54FF4E160E0
:100D700004F06EF810BD4A6B527D4B6B1B7D42EA4E
:100D80000322826182698260826942600269521C28
:100D9000026170470148B0F900007047C4060020A6
:100DA0000148B0F902007047C40600200148B0F9BC
:100DB00004007047C40600200148B0F906007047DF
:100DC000C406002010B5FFF7F7FFA0F5806000EE25
:100DD000100AF8EEC00A4B4890ED000A9FED4A1A3F
:100DE00000EEC10A80ED000AFFF7E0FFA0F5806089
:100DF00000EE100AF8EEC00A424890ED010A9FED9D
:100E0000421A00EEC10A80ED010A02F0F7FD3D48EA
:100E1000D0ED020A30EEC00A80ED020AFFF7BAFFF9
:100E2000A0F5806000EE100AB8EEC00ADFED370AC8
:100E300020EE200A334880ED0A0AFFF7B1FFA0F543
:100E4000806000EE100AB8EEC00ADFED300A20EE36
:100E5000200A2C4880ED090A90ED090AB1EE400AFB
:100E6000DFED2B0A20EE200AD0ED0A0A9FED281AAA
:100E700000EEC10A274880ED000A224890ED090AD9
:100E8000DFED230A20EE200AD0ED0A0A9FED201A9A
:100E900000EEC10A204880ED000A1A4890ED090AC8
:100EA000B1EE400ADFED1A0A20EE200AD0ED0A0A60
:100EB0009FED171A00EEC10A184880ED000A11488C
:100EC00090ED090ADFED120A20EE200AD0ED0A0AA1
:100ED0009FED0F1A00EEC10A114880ED000A094883
:100EE00090ED000A0F4880ED000A064890ED010AD7
:100EF0000D4880ED000A034890ED020A0B4880ED92
:100F0000000A10BD880900203480373B1F856B40E4
:100F10009A99993D9C000020A4000020AC0000207C
:100F2000B40000206C000020740000207C00002031
:100F300070B504460A460023157D012000FA05F32A
:100F40003C4901F50071086840F00100086008683C
:100F500020F47C5008600868556A40EA0520086063
:100F6000C8699843C861A1F50071D069C8B9D1F8C2
:100F70000C029843C1F80C02908880B2958940EA2F
:100F8000054501F51070566940F83650108880B25A
:100F9000158940EA054501F51070566900EBC60059
:100FA0004560D069012819D1D1F80C021843C1F865
:100FB0000C02908880B2158840EA054501F5107052
:100FC000566940F83650908980B2158940EA054547
:100FD00001F51070566900EBC6004560906928B9AC
:100FE000D1F804029843C1F8040204E0D1F80402E5
:100FF0001843C1F80402106920B9D1F814029843CB
:10100000C1F814021069012804D1D1F81402184360
:10101000C1F81402106A012804D1D1F81C02184347
:10102000C1F81C02D1F8000220F00100C1F8000252
:10103000002070BD0064004004490968496941F01E
:101040000201024A12685161704700000C0400203E
:101050002DE9F0410446002500260027A846206817
:10106000C068C0F3001520684069C0F3C0062DB108
:1010700026B148F4007810202168C8602068006913
:10108000C0F3001520684069C0F380162DB126B169
:1010900048F480681020216808612068406900F0E9
:1010A000010000283BD0206880687A4908408842C7
:1010B00001D1012000E000200546206880687649C3
:1010C0000840884201D1012000E000200646206847
:1010D000806872490840884201D1012000E0002068
:1010E00007460DB906B9D7B120688068C0F340053E
:1010F00020688068C0F3402620688068C0F34047BD
:101100000DB906B91FB12046FFF723FC01E048F4F2
:101110000068206880686249084321688860206808
:10112000C06800F0030520684069C0F3400625B19F
:101130001EB100212046FFF72BFB2068006900F05C
:10114000030520684069C0F3001625B11EB10121D6
:101150002046FFF71DFB206C40EA08002064206851
:10116000806900F0010520684069C0F3002620680E
:101170004069C0F3C0372DB126B11FB1206C40F0DB
:101180000100206420688069C0F340052068406940
:10119000C0F3402620684069C0F3C0372DB126B1A6
:1011A0001FB1206C40F00200206420688069C0F309
:1011B000800520684069C0F3802620684069C0F33C
:1011C000C0372DB126B11FB1206C40F0040020645F
:1011D0002068806900F0700008B9012000E000205C
:1011E000054620684069C0F3C02620684069C0F306
:1011F000C03795BB8EB387B32068806900F0700557
:10120000402D1BD006DC102D09D0202D0CD0302D08
:1012100024D10EE0502D16D0602D1FD118E0206C87
:1012200040F0080020641AE0206C40F010002064B8
:1012300015E0206C40F02000206410E0206C40F0AD
:10124000400020640BE0206C40F08000206406E049
:10125000206C40F48070206401E007E000BF00BF14
:101260002068806920F0700021688861206C78B166
:10127000042021684860012084F83C00206840690F
:1012800048F65B718843216848612046FFF7D4FE29
:10129000BDE8F08103000004000300080000031013
:1012A0001905010070B50446002600250CB901207F
:1012B00070BD94F83C0028B9002084F83D00204619
:1012C00000F0CEF8022084F83C002068006820F08E
:1012D0000200216808602068006840F00100216871
:1012E000086000F0A3FE05460EE000F09FFE401BE4
:1012F0000A2809D9032084F83C0000BF002084F8A4
:101300003D0000BF0320D3E72068406800F00100E3
:101310000028EAD02068406800F00100002875D05D
:10132000A069012806D12068006840F0800021688B
:10133000086005E02068006820F0800021680860EF
:10134000E069012806D12068006840F0400021686B
:10135000086005E02068006820F04000216808600F
:10136000206A012806D12068006840F0200021682A
:10137000086005E02068006820F02000216808600F
:10138000606A012806D12068006840F010002168DA
:10139000086005E02068006820F0100021680860FF
:1013A000A06A012806D12068006840F00800216882
:1013B000086005E02068006820F0080021680860E7
:1013C000E06A012806D12068006840F00400216826
:1013D000086005E02068006820F0040021680860CB
:1013E000D4E902010843216908436169084361683F
:1013F000491E08432168C8612068006820F0010088
:101400002168086000F012FE05460FE01AE000F0C7
:101410000DFE401B0A2809D9032084F83C0000BFB8
:10142000002084F83D0000BF032041E720684068A9
:1014300000F001000028EAD12068406800F00100B7
:1014400000B90126012E06D100202064012084F875
:101450003C0000202CE7042084F83C00012027E712
:1014600010B586B00446142101A8FEF7E1FE234919
:101470002068884240D100BF0020009020480068CA
:1014800040F000701E4908600846006800F00070D7
:10149000009000BF00BF00BF002000901848103827
:1014A000006840F0010016491039086008460068DD
:1014B00000F00100009000BF00BF4FF4C050019049
:1014C0000220029000200390032004900920059040
:1014D00001A90C4800F0A4FC00220521132000F013
:1014E0004BFE132000F038FE00220521142000F0EE
:1014F00043FE142000F030FE06B010BD0064004032
:101500004038024000000240024689B992F83C008F
:1015100022280BD092F83C00422807D092F83C00D9
:10152000622803D092F83C00722801D10220704753
:10153000012911D192F83C0032280BD092F83C00DE
:10154000522807D092F83C00622803D092F83C0061
:10155000722801D10220EAE700BF92F83D0001287D
:1015600001D10220E3E7012082F83D0000BFC9B9A4
:1015700092F83C00122804D0322806D052280CD110
:1015800007E0422082F83C000BE0622082F83C0039
:1015900007E0722082F83C0003E0222082F83C0041
:1015A00000BF19E092F83C00122804D0222806D08F
:1015B00042280CD107E0522082F83C000BE0622068
:1015C00082F83C0007E0722082F83C0003E0322001
:1015D00082F83C0000BF00BF002010641068406922
:1015E00048F6017318431368586100BF002082F861
:1015F0003D0000BF31B91068406940F00A0013682F
:10160000586105E01068406940F050001368586167
:1016100000208CE710B5044657480068401C564926
:10162000086008460068052804D85448007808B1C6
:10163000FFF71EFA50480068052805D14F4800788A
:1016400010B100204D49087000F0F0FC4C490968C9
:10165000401AB0F5FA7F03D900F0E8FC4849086069
:10166000606B0068A0F2012007287AD2DFE800F062
:101670000412202E3C476E003F480068322804D8F0
:1016800021464048FFF777FB03E021463D48FFF73E
:10169000C1FA66E038480068322804D821463A4842
:1016A000FFF769FB03E021463748FFF7B3FA58E03C
:1016B00031480068322804D821463448FFF75BFBE4
:1016C00003E021463148FFF7A5FA4AE02A480068BE
:1016D000322804D821462E48FFF74DFB03E021466F
:1016E0002B48FFF797FA3CE021462A48FFF792FA89
:1016F000284803F047F8274880ED100A31E02146DA
:101700002548FFF787FA244802F0A0F9224880ED27
:10171000100A19480068642817D81F4880691E49B4
:101720008968401A10F57A6F04DA4FF400501A49AC
:1017300088610AE01848806917498968401AB0F53D
:101740007A6F02DD1548144988610AE02146144881
:10175000FFF760FA124802F0C3F9114880ED100A51
:1017600000BF00BF0F480068406940F002000D490B
:101770000968486110BD00000C0000201400002022
:1017800010000020D8060020200700206807002055
:10179000B0070020F80700204008002000E0FFFF0D
:1017A000880800200C0400202DE9F04104460E4674
:1017B000042500272068806800F08060B0F1806F09
:1017C0000DD02068806800F00060B0F1006F06D096
:1017D0002068806800F08050B0F1805F7DD100BF4C
:1017E00094F83D00012802D10220BDE8F0810120DB
:1017F00084F83D0000BF94F83C00222804D0322831
:1018000006D062280CD107E0422084F83C000BE0AF
:10181000522084F83C0007E0722084F83C0003E08A
:10182000122084F83C0000BF00BF2068806800F0F0
:101830008060B0F1806F01D1002509E020688068E8
:1018400000F00060B0F1006F01D1012500E0022539
:10185000206800F5C07000EB0510006800F0010181
:10186000206800F5C07000EB05100160206B8068F7
:1018700098B9206800F5C07000EB05100068216B76
:10188000C968226B128841EA42510843216801F578
:10189000C07101EB0511086015E0206800F5C0700B
:1018A00000EB05100068216B8968226B526841EAE1
:1018B000C201226BD26811430143206800F5C07059
:1018C00000EB05100160206B007C00F00F00216B25
:1018D0000861206800F5C07000E0B6E000EB05107C
:1018E000406820F00F01206800F5C07000EB051083
:1018F0004160206800F5C07000EB05104068216B66
:1019000009690843216801F5C07101EB05114860C0
:10191000206BC07D0106206B807D41EA0041206B79
:10192000407D41EA0020216B097D0843216801F5D3
:10193000C07101EB05118860206BC07E0106206B31
:10194000807E41EA0041206B407E41EA0021206B0D
:10195000007E0143206800F5C07000EB0510C160F7
:10196000206800F5C07000EB0510006840F0010130
:10197000206800F5C07000EB0510016000F056FB18
:10198000074620E0701CF0B126B100F04FFBC01BF1
:10199000B04218D9032084F83C001DB9802021688A
:1019A000886009E0012D03D1E8032168886003E025
:1019B0004FF400002168886000BF002084F83D00DB
:1019C00000BF032011E74DB9206880682149084015
:1019D000884201D1012016E0002014E0012D09D138
:1019E000206880681C490840884201D101200AE033
:1019F000002008E02068806818490840884201D12A
:101A0000012000E000200028BCD094F83C004228CF
:101A100004D0522806D072280CD107E0222084F886
:101A20003C000BE0322084F83C0007E0622084F8A0
:101A30003C0003E0012084F83C0000BF00BF00BF71
:101A4000002084F83D0000BFCFE6042084F83C006D
:101A50000120CAE603000004000300080000031090
:101A60007047014691F83500022803D08020486570
:101A700001207047052081F835000868006820F0D3
:101A800001000A6810600020F3E70000F8B5044682
:101A9000002000908C4800684FF41651B0FBF1F71D
:101AA000A56D2E6894F85C1008208840304098B1ED
:101AB0002068006800F0040070B12068006820F021
:101AC00004002168086094F85C1008208840A86031
:101AD000606D40F00100606594F85C100120884062
:101AE000304068B12068406900F0800040B194F84F
:101AF0005C1001208840A860606D40F002006065C5
:101B000094F85C1004208840304068B12068006878
:101B100000F0020040B194F85C1004208840A860F6
:101B2000606D40F00400606594F85C1010208840FF
:101B3000304078B32068006800F0080050B394F893
:101B40005C1010208840A8602068006800F48020A5
:101B500080B12068006800F4002028B9206CC8B16A
:101B60002046216C884715E0A06C98B12046A16CF6
:101B700088470FE02068006800F4807028B920686A
:101B8000006820F0080021680860206C10B1204631
:101B9000216C884794F85C10202088403040002851
:101BA00065D02068006800F0100000285FD094F82D
:101BB0005C1020208840A86094F83500052828D1C2
:101BC0002068006820F016002168086020684069DD
:101BD00020F0800021684861206C08B9A06C28B111
:101BE0002068006820F008002168086094F85C1004
:101BF0003F208840A86000BF002084F8340000BF68
:101C0000012084F83500206D10B12046216D8847F1
:101C1000F8BD2068006800F4802080B1206800686A
:101C200000F4002028B9606C10B12046616C884730
:101C30001DE0E06BD8B12046E16B884717E02068D3
:101C4000006800F4807068B92068006820F0100017
:101C50002168086000BF002084F8340000BF012024
:101C600084F83500E06B10B12046E16B8847606D69
:101C700038B3606D00F00100F0B1052084F8350044
:101C80002068006820F001002168086000BF00980B
:101C9000401C0090B84200D905E02068006800F0C0
:101CA00001000028F3D100BF00BF002084F83400F9
:101CB00000BF012084F83500E06C10B12046E16CD3
:101CC000884700BFA4E70000000000202DE9F04194
:101CD0000446002500F0AAF9074614B90120BDE822
:101CE000F081606A00B100BF00BF002084F83400BA
:101CF00000BF022084F835002068006820F0010051
:101D0000216808600AE000F091F9C01B052805D998
:101D100020206065032084F83500E0E72068006833
:101D200000F001000028EED1206805682148054038
:101D3000D4E901010843E168084321690843616966
:101D40000843A1690843E1690843216A0843054340
:101D5000606A042803D1D4E90B01084305432068D5
:101D600005602068456925F00705606A0543606ADB
:101D700004280DD1A06A0543E06A48B12046FEF769
:101D8000DDFE28B140206065012084F83500A6E71B
:101D9000206845612046FEF7B7FE064694F85C10C1
:101DA0003F208840B06000206065012084F8350045
:101DB000002094E73F8010F02DE9F04104460D46E5
:101DC00016461F464FF0000800BF94F83400012863
:101DD00002D10220BDE8F081012084F8340000BF68
:101DE00094F83500012811D1022084F83500002034
:101DF00060653B46324629462046FEF7F4FE2068E1
:101E0000006840F001002168086006E000BF002083
:101E100084F8340000BF4FF002084046DAE70000C3
:101E2000F8B502460B460025002400200021DCE026
:101E3000012606FA01F51E6806EA0504AC4273D1D4
:101E40005E68022E02D05E68122E13D1CF0802F116
:101E5000200656F827004E07F70E0F26BE40B04367
:101E60004F07FF0E1E69BE403043CF0802F1200627
:101E700046F8270010684F000326BE40B0431E7985
:101E800006F003064F00BE40304310605E68012E2E
:101E900008D05E68022E05D05E68112E02D05E6802
:101EA000122E13D190684F000326BE40B0434F005E
:101EB000DE68BE4030439060506801268E40B043DB
:101EC0001E79C6F300168E4030435060D0684F0034
:101ED0000326BE40B0434F009E68BE403043D060F2
:101EE0005E6806F08056B6F1805F7DD100BF0026A7
:101EF0000096404E366846F480463E4F3E603E4671
:101F0000366806F48046009600BF00BF3A4E8F0840
:101F100056F827008E07370F0F26BE40B043374EC6
:101F2000B24202D1002624E05EE0354EB24201D139
:101F300001261EE0334EB24201D1022619E0324E94
:101F4000B24201D1032614E0304EB24201D1042640
:101F50000FE02F4EB24201D105260AE02D4EB242CB
:101F600001D1062605E02C4EB24201D1072600E041
:101F700008268F073F0FBE4030431F4E8F0846F89C
:101F80002700264E3068A0435E6806F48036B6F51A
:101F9000803F00D12043214E3060361D3068A04381
:101FA0005E6806F40036B6F5003F00D120431B4EB4
:101FB000361D3060361D3068A0435E6806F480161A
:101FC000B6F5801F00D12043144E08363060361D10
:101FD0003068A0435E6806F40016B6F5001F00D115
:101FE00020430E4E0C363060491C1029FFF420AF00
:101FF000F8BD0000443802400838014000000240AB
:102000000004024000080240000C024000100240A0
:102010000014024000180240001C0240003C014035
:102020000AB1816101E00B048361704701480068D7
:10203000704700000804002002480068401C014965
:10204000086070470804002010B50D48006840F48F
:1020500000700B4908600846006840F48060086022
:102060000846006840F480700860032000F0C2F861
:10207000002000F007F800F04BF8002010BD000031
:10208000003C024070B588B00446002500260022BE
:102090002146362000F070F8362000F05DF800BFD1
:1020A000002001901648006840F0100014490860B4
:1020B0000846006800F01000019000BF00BF02A9B0
:1020C00003A800F06BF900F091F945000D48B5FB4D
:1020D000F0F0461E0C480D49086040F2E7310B480D
:1020E000C160466000210161816000F032FC20B9CE
:1020F000064800F0ABFC08B070BD0120FBE7000013
:102100004038024040420F00001000408806002086
:1021100008B500BF002000900E48006840F48040E1
:102120000C4908600846006800F48040009000BF39
:1021300000BF00BF00200090081F006840F08050E2
:10214000091F08600846006800F08050009000BF3A
:1021500000BF08BD4438024001460846002809DB9C
:1021600000F01F0301229A4043099B0003F1E02382
:10217000C3F8002100BF70472DE9F05F80460D468F
:102180001646002702F0F8FD074639462A46334630
:1021900001F00700C0F1070ABAF1040F02D94FF0AD
:1021A000040A01E0C0F1070AD14600F1040ABAF1BD
:1021B000070F02D24FF0000A01E0A0F1030AD44653
:1021C0004FF0010A0AFA09FAAAF1010A0AEA020A18
:1021D0000AFA0CFA4FF0010B0BFA0CFBABF1010BF6
:1021E0000BEA030B4AEA0B042146404602F0CCFD01
:1021F000BDE8F09F00BF00F00702064B19684FF6DC
:10220000FF031940044B0B4343EA0221014B1960C1
:1022100000BF70470CED00E00000FA0570B5044601
:102220000D460CB9012070BD5848006800F00F0041
:10223000A84209D255490D700846006800F00F0009
:10224000A84201D00120EEE7207800F00200022829
:102250001DD1207800F00400042805D14C48006806
:1022600040F4E0504A490860207800F0080008284F
:1022700005D14748006840F460404549086044483B
:10228000006820F0F000A168084341490860207808
:1022900000F00100A8B36068012807D13C48083865
:1022A0000068C0F34040B8B90120BCE7606802286C
:1022B00002D06068032807D1354808380068C0F3A9
:1022C000406048B90120AEE7314808380068C0F3E3
:1022D000400008B90120A6E72D48006820F003005F
:1022E000616808432A490860FFF7A0FE064609E036
:1022F000FFF79CFE801B41F28831884202D90320FF
:1023000091E707E02248006800F00C006168B0EB3C
:10231000810FEDD11D48006800F00F00A84209D9D7
:102320001A490D700846006800F00F00A84201D05D
:10233000012078E7207800F00400042807D1144831
:10234000006820F4E050E1680843114908602078F3
:1023500000F00800082808D10D48006820F460400B
:10236000216940EAC1000A49086000F05FF80849A5
:102370000968C1F30311074A515CC8400649086067
:102380000020FFF77FFE00204DE70000003C0240E8
:1023900008380240F4500008000000200F220260BC
:1023A0000D4A126802F0030242600B4A126802F002
:1023B000F0028260084A126802F4E052C260064AE3
:1023C000126802F46042D2080261044A126802F004
:1023D0000F020A607047000008380240003C0240CB
:1023E00001480068704700000000002000B5FFF7BA
:1023F000F7FF04490968C1F38221034A515CC840D0
:1024000000BD0000083802400451000800B5FFF785
:10241000E7FF04490968C1F34231034A515CC840EF
:1024200000BD000008380240045100082DE9F047C3
:10243000002400250026A1462548006800F00C0075
:1024400020B1042805D008283AD105E0DFF88490AF
:1024500039E0DFF8849036E01D48001F006800F086
:102460003F041B48001F006800F4800078B11A4840
:102470001749091F0968C1F38811A0FB01700146C3
:10248000224600233846FDF79BFE05460EE0114824
:102490000F49091F0968C1F38811A0FB01700146AB
:1024A000224600233846FDF78BFE05460848001FEC
:1024B0000068C0F30140401C4600B5FBF6F902E09D
:1024C000DFF8109000BF00BF4846BDE8F08700006D
:1024D000083802400024F40000127A0038B504469F
:1024E0000CB9012038BD207800F00100002874D01C
:1024F000F848006800F00C0004280DD0F54800688A
:1025000000F00C00082813D1F248001F006800F406
:102510008000B0F5800F0BD1EE4808380068C0F39A
:102520004040002859D06068002856D10120D9E7E2
:1025300000BF6068B0F5803F08D1E6480838006801
:1025400040F48030E349083908601EE06068B0F567
:10255000A02F0DD1DF480838006840F48020DD4905
:10256000083908600846006840F4803008600CE0D4
:10257000D8480838006820F48030D6490839086007
:102580000846006820F48020086000BF606890B1B1
:10259000FFF74CFD054606E0FFF748FD401B6428A9
:1025A00001D903209EE7CB4808380068C0F34040BB
:1025B0000028F1D011E0FFF739FD054606E0FFF7EE
:1025C00035FD401B642801D903208BE7C14808383A
:1025D0000068C0F340400028F1D1207800F00200EC
:1025E00002285FD1BB48006800F00C0058B1B94820
:1025F000006800F00C0008281CD1B648001F0068D5
:1026000000F48000B0B9B34808380068C0F3400057
:1026100020B1E068012801D0012063E7AD48083807
:10262000006820F0F800216940EAC100A949083992
:10263000086037E0E06800B30120A7490860FFF7B1
:10264000F5FC054606E0FFF7F1FC401B022801D926
:10265000032047E79F4808380068C0F3400000287F
:10266000F1D09C480838006820F0F800216940EA61
:10267000C10098490839086014E0002096490860B4
:10268000FFF7D4FC054606E0FFF7D0FC401B02280C
:1026900001D9032026E78F4808380068C0F34000BE
:1026A0000028F1D1207800F0080008282CD16069BA
:1026B000A8B1012089490860FFF7B8FC054606E08B
:1026C000FFF7B4FC401B022801D903200AE7814828
:1026D0006C300068C0F340000028F1D014E0002006
:1026E0007E490860FFF7A2FC054606E0FFF79EFC66
:1026F000401B022801D90320F4E676486C300068BC
:10270000C0F340000028F1D1207800F00400042834
:102710007FD100BF002000906E483830006840F044
:1027200080506C49383108600846006800F08050DD
:10273000009000BF00BF6A48006840F4807068499C
:102740000860FFF773FC054606E0FFF76FFC401BCF
:10275000022801D90320C5E66148006800F48070B2
:102760000028F2D000BFA068012808D1594868307D
:10277000006840F001005749683108601DE0A0681A
:1027800005280DD153486830006840F004005149D5
:10279000683108600846006840F0010008600CE0FD
:1027A0004C486830006820F001004A4968310860F0
:1027B0000846006820F00400086000BFA068A0B1CF
:1027C000FFF734FC054608E0FFF730FC401B41F200
:1027D0008831884201D9032084E63E486830006889
:1027E000C0F340000028EFD013E0FFF71FFC0546C0
:1027F00008E0FFF71BFC401B41F28831884201D9F9
:1028000003206FE6334868300068C0F340000028BA
:10281000EFD1A069B8B32F48006800F00C00082879
:1028200060D0A06902283ED100202B490866FFF73E
:10283000FDFB054606E0FFF7F9FB401B022801D926
:1028400003204FE6234808380068C0F340600028A2
:10285000F1D1D4E907010843616A40EA81110122FC
:10286000A06AC2EB500041EA00412C20005D41EA21
:1028700000601849091F0860012017490866FFF722
:10288000D5FB054607E02FE0FFF7D0FB401B0228F1
:1028900001D9032026E60F4808380068C0F34060DD
:1028A0000028F1D020E000200B490866FFF7BEFBAE
:1028B000054606E0FFF7BAFB401B022801D90320BA
:1028C00010E6044808380068C0F340600028F1D1E1
:1028D0000AE007E00838024000004742800E474205
:1028E000007000400120FDE50020FBE570477047C7
:1028F000024600BF92F83800012801D1022070473B
:10290000012082F8380000BF022082F839001068E8
:10291000406820F0700013685860106840680B68C9
:102920001843136858601068806820F080001368AE
:102930009860106880684B6818431368986001209D
:1029400082F8390000BF002082F8380000BF00BFC5
:10295000D5E710B504460CB9012010BD94F8390034
:1029600028B9002084F83800204600F00DF8022035
:1029700084F83900211D206801F08AFA012084F8CA
:1029800039000020E9E7000038B504462B492068EB
:10299000884218D100BF002000902948006840F00C
:1029A0000200274908600846006800F00200009015
:1029B00000BF00BF002211461D20FFF7DDFB1D20D8
:1029C000FFF7CAFB38E01F492068884218D100BFD2
:1029D000002000901A48006840F004001849086080
:1029E0000846006800F00400009000BF00BF00220D
:1029F00011461E20FFF7C0FB1E20FFF7ADFB1BE0BA
:102A000011492068884217D100BF002000900C486F
:102A1000006840F008000A4908600846006800F0B5
:102A20000800009000BF00BF002211463220FFF7CF
:102A3000A3FB3220FFF790FB38BD000000040040EC
:102A40004038024000080040000C00400146086881
:102A5000C06840F001000A68D0600868006840F073
:102A600001000A681060002070472DE9F04104461B
:102A70000D46002600BF94F83800012802D102203C
:102A8000BDE8F081012084F8380000BF022084F8FE
:102A900039002068866826F0770626F47F4620688D
:102AA0008660286850283BD00CDC202860D004DCED
:102AB000002853D0102865D155E030285DD040283B
:102AC00060D141E0602835D070280DD0B0F5805F2E
:102AD00003D0B0F5005F55D115E02068806820F084
:102AE0000700216888604EE0D5E902136A68206813
:102AF00001F04EFA2068866826F0770646F07706E1
:102B0000206886603FE0D5E902136A68206801F01A
:102B10003FFA2068806840F480402168886032E095
:102B2000EA686968206801F029FB5021206801F0FB
:102B30003BFA28E0EA686968206801F034FB60210C
:102B4000206801F031FA1EE0EA686968206801F047
:102B500015FB4021206801F027FA14E000212068CD
:102B600001F022FA0FE01021206801F01DFA0AE0BE
:102B70002021206801F018FA05E03021206801F0DA
:102B800013FA00E000BF00BF012084F8390000BF45
:102B9000002084F8380000BF00BF71E7704710B50F
:102BA000044620680069C0F34000D8B12068C068BE
:102BB000C0F34000B0B16FF002002168086101204D
:102BC00020762068806900F0030018B12046FFF7E6
:102BD000E5FF05E0204600F0DDF8204600F07AF938
:102BE0000020207620680069C0F38000D8B12068FA
:102BF000C068C0F38000B0B16FF0040021680861C4
:102C0000022020762068806900F4407018B12046C8
:102C1000FFF7C4FF05E0204600F0BCF8204600F0B6
:102C200059F90020207620680069C0F3C000D8B1AF
:102C30002068C068C0F3C000B0B16FF00800216820
:102C40000861042020762068C06900F0030018B1F4
:102C50002046FFF7A3FF05E0204600F09BF8204642
:102C600000F038F90020207620680069C0F30010D9
:102C7000D8B12068C068C0F30010B0B16FF0100088
:102C800021680861082020762068C06900F440703F
:102C900018B12046FFF782FF05E0204600F07AF8E1
:102CA000204600F017F9002020762068006900F027
:102CB000010058B12068C06800F0010030B16FF029
:102CC000010021680861204600F02CF920680069A5
:102CD000C0F3C01058B12068C068C0F3C01030B154
:102CE0006FF08000216808612046FFF7FFFD206833
:102CF0000069C0F3801058B12068C068C0F380102C
:102D000030B16FF0400021680861204600F02CF9D6
:102D100020680069C0F3401058B12068C068C0F353
:102D2000401030B16FF02000216808612046FFF7A5
:102D3000DEFD10BD10B586B00446142101A8FDF7D4
:102D400077FA1149206888421CD100BF002000900A
:102D50000E48006840F008000C490860084600680A
:102D600000F00800009000BF00BF8814019002200E
:102D700002900020039004900220059001A90448CD
:102D8000FFF74EF806B010BD000800403038024092
:102D9000000C0240704770B504460D46164600BF51
:102DA00094F83800012801D1022070BD012084F878
:102DB000380000BF022084F8390036B1042E1BD041
:102DC000082E31D00C2E5ED145E02946206801F056
:102DD000F5F82068806940F0080021688861206863
:102DE000806920F004002168886120688069296971
:102DF00008432168886147E02946206801F016F9F8
:102E00002068806940F400602168886120688069DA
:102E100020F480602168886120688069296940EA1F
:102E20000120216888612FE02946206801F03AF9E5
:102E30002068C06940F008002168C8612068C06946
:102E400020F004002168C8612068C069296908432E
:102E50002168C86118E02946206801F05FF9206800
:102E6000C06940F400602168C8612068C06920F42E
:102E700080602168C8612068C069296940EA012032
:102E80002168C86100E000BF00BF012084F839005C
:102E900000BF002084F8380000BF00BF85E710B5F0
:102EA00004460CB9012010BD94F8390028B900205F
:102EB00084F83800204600F00CF8022084F839002D
:102EC000211D206800F0E4FF012084F83900002073
:102ED000E9E770477047000030B504460D4601220F
:102EE0002946206801F046F80C492068884203D042
:102EF0000B492068884201D1012000E0002028B160
:102F00002068406C40F400402168486420680068F4
:102F100040F0010021680860002030BD0000014041
:102F20000004014010B504460C492068884207D1CE
:102F3000FDF748FF00F03AFE00F0CEFC00F074FC14
:102F400007492068884201D1FFF776F805492068D3
:102F5000884201D101F008FC10BD000000040040CF
:102F600000100040000C00407047704770B50446E8
:102F70002068006800F0100010287BD120680668E7
:102F800020684668761C606B00684F49884201D112
:102F900020205CE0606B00684C49884201D1202011
:102FA00055E0606B006848496031884201D12020BB
:102FB0004DE0606B006845496031884201D12020B6
:102FC00045E0606B006840491831884201D1C01467
:102FD0003DE0606B00683D491831884201D1C01462
:102FE00035E0606B006838497831884201D1C014FF
:102FF0002DE0606B006835497831884201D1C014FA
:1030000025E0606B006830493031884202D14FF4CE
:1030100000101CE0606B00682C493031884202D1FE
:103020004FF4001013E0606B00682749903188422C
:1030300002D14FF400100AE0606B00682349903120
:10304000884202D14FF4001001E04FF000600546C5
:10305000606B0068006820F00100616B096808601F
:10306000606B006819494831884204D91748001F2D
:10307000056017E022E0606B00681349A8318842C0
:1030800003D91248083805600CE0606B00680E49EF
:103090004831884203D90C481038C56002E00A481C
:1030A00010388560A08D616B09684860606B0068AE
:1030B000006840F00100616B096808600448A16A7B
:1030C000FDF778FC70BD0000106002401064024003
:1030D000C40600202DE9F0470446206805682068F2
:1030E000C668206847694FF00008C14605F00F0820
:1030F000B8F1000F0AD105F0200038B106F0200029
:1031000020B1204601F0E1F8BDE8F087B8F1000FEA
:103110006DD007F0010018B906F49070002866D051
:1031200005F0010030B106F4807018B1E06B40F09A
:103130000100E06305F0040030B107F0010018B1B0
:10314000E06B40F00200E06305F0020030B107F0F0
:10315000010018B1E06B40F00400E06305F00800E6
:1031600030B107F0010018B1E06B40F00800E063F7
:10317000E06B68B305F0200028B106F0200010B124
:10318000204601F0A2F820684069C0F38019E06B86
:1031900000F0080010B9B9F1000F22D0204601F06C
:1031A00022F82068406900F04000B0B12068406912
:1031B00020F0400021684861606B50B11748616B96
:1031C0000865606BFEF74DFC10B1606B016D8847C0
:1031D0000CE02046FFF7C9FE08E02046FFF7C5FED9
:1031E00004E02046FFF7C1FE0020E0638CE705F015
:1031F000800030B106F0800018B1204601F066FA78
:1032000082E705F0400030B106F0400018B12046DA
:1032100000F0F9FF78E700BF76E70000D34100082F
:1032200010B504460CB9012010BDA06900B100E042
:1032300000BF94F8390028B9002084F838002046EF
:1032400000F028F8242084F839002068C06820F4B1
:1032500000502168C860204601F084F820680069A9
:1032600020F49040216808612068406920F02A001D
:10327000216848612068C06840F400502168C86037
:103280000020E063202084F8390084F83A00002010
:10329000CAE7000010B586B00446142101A8FCF767
:1032A000C7FF6F492068884239D100BF00200090D5
:1032B0006C48006840F010006A49086008460068E1
:1032C00000F01000009000BF00BF00BF0020009081
:1032D00064481438006840F00100624914390860FD
:1032E0000846006800F00100009000BF00BF4FF4E6
:1032F000C0600190022002900120039003200490FE
:103300000720059001A95848FEF78AFD00220521F3
:103310002520FEF731FF2520FEF71EFF9DE05349D3
:10332000206888425AD100BF002000904D48001FFD
:10333000006840F400304B49091F086008460068E7
:1033400000F40030009000BF00BF00BF00200090DC
:1033500044481438006840F00100424914390860BC
:103360000846006800F00100009000BF00BF0C207C
:103370000190022002900120039003200490072076
:10338000059001A93848FEF74BFD394839490860D6
:103390004FF000604860002136488160C1604FF402
:1033A00080610161002141618161C1614FF440315F
:1033B000016200214162FEF789FC08B1FDF7C8FCFB
:1033C00000BF2C486063846300BF002205212620D3
:1033D000FEF7D2FE2620FEF7BFFE3EE0264920681B
:1033E00088423AD100BF002000901E48001F0068AC
:1033F00040F480201B49091F08600846006800F45B
:103400008020009000BF00BF00BF00200090154842
:103410001438006840F00200124914390860084668
:10342000006800F00200009000BF00BF4FF4406051
:1034300001900220029001200390032004900720B5
:10344000059001A90D48FEF7EBFC0022114627204C
:10345000FEF792FE2720FEF77FFE06B010BD0000AB
:103460000010014044380240000002400044004087
:103470008860024028060020004800400004024006
:1034800070B504460D4616462068C06840F010002E
:103490002168C86032462946204600F0C4FE70BD4F
:1034A0007047704700BFFEE710B50F480F4908602E
:1034B0000320486000210D488160C1604FF4002165
:1034C00001614FF440114161002181610121C1611D
:1034D0000021016241628162C162FDF7E3FE08B131
:1034E000FDF736FC10BD0000006400400C04002015
:1034F00008B500BF002000900A48006840F40010A2
:10350000084908600846006800F40010009000BFF9
:1035100000BF002211461020FEF72EFE1020FEF7FD
:103520001BFE08BD3038024000B587B0142102A848
:10353000FCF77EFE00BF002001902E48006840F09E
:1035400020002C4908600846006800F02000019027
:1035500000BF00BF00BF002001900846006840F097
:10356000800008600846006800F08000019000BFFD
:1035700000BF00BF002001900846006840F0010035
:1035800008600846006800F00100019000BF00BF1D
:1035900000BF002001900846006840F0020008606B
:1035A0000846006800F00200019000BF00BF00BFA5
:1035B000002001900846006840F0080008600846B6
:1035C000006800F00800019000BF00BF00224FF427
:1035D000C0610948FEF724FD4FF4C060029001204D
:1035E000039000200490059002A90348FEF718FC00
:1035F00007B000BD303802400014024000B587B06B
:1036000000200390049005900690019002901448C9
:103610001449086042F2CF004860002111488160DF
:103620002721C16000210161FFF793F908B1FDF77F
:103630008FFB4FF48050039003A90A48FFF715FA57
:1036400008B1FDF785FB00200190029001A9054813
:10365000FFF74EF908B1FDF77BFB07B000BD000096
:10366000000400405004002000B58DB000200990F7
:103670000A900B900C90079008901C216846FCF76C
:10368000D7FD1F481F4908605320486000211D488E
:10369000816040F69F71C16000210161FFF759F917
:1036A00008B1FDF755FB4FF48050099009A9154862
:1036B000FFF7DBF908B1FDF74BFB1248FFF7EFFB13
:1036C00008B1FDF745FB00200790089007A90D48B9
:1036D000FFF70EF908B1FDF73BFB602000900020DA
:1036E000019002900490002269460648FFF753FBC0
:1036F00008B1FDF72DFB0348FFF71CFB0DB000BD23
:10370000000800408C04002000B587B00020039022
:1037100004900590069001900290144814490860A6
:1037200042F2CF0048600021114881600921C16048
:1037300000210161FFF70DF908B1FDF709FB4FF416
:103740008050039003A90A48FFF78FF908B1FDF7ED
:10375000FFFA00200190029001A90548FFF7C8F880
:1037600008B1FDF7F5FA07B000BD0000000C0040FD
:10377000C804002010B50B480B4908604FF4E13035
:103780004860002108488160C16001610C214161ED
:1037900000218161C161FFF743FD08B1FDF7D8FA4F
:1037A00010BD0000001001406805002010B50B4856
:1037B0000B4908600B484860002109488160C160DE
:1037C0004FF4806101610C21416100218161C1617F
:1037D000FFF726FD08B1FDF7BBFA10BD004400401D
:1037E000A8050020A086010010B50B480B49086011
:1037F0004FF4E1304860002108488160C1600161F8
:103800000C21416100218161C161FFF709FD08B10F
:10381000FDF79EFA10BD000000480040E8050020BA
:1038200000BFFEE77047000010B51F4890ED001A7A
:10383000B1EE411AF0EE410A1C4890ED111AB0EEBB
:10384000410A1B4801F040FB1A4890ED001AB1EE06
:10385000411AF0EE410A184890ED111AB0EE410AF3
:10386000164801F031FB164890ED001AB1EE411AEE
:10387000F0EE410A134890ED111AB0EE410A1248D9
:1038800001F022FB114890ED001AB1EE411AF0EE62
:10389000410A0F4890ED111AB0EE410A0D4801F0AF
:1038A00013FB00F0F3F910BD9C000020D8060020A7
:1038B000BC000020A40000202007002010010020F0
:1038C000AC0000206807002064010020B400002044
:1038D000B0070020B801002010B5154890ED001A7F
:1038E000F0EE410A134890ED101AB0EE410A12486A
:1038F00001F0EAFA114890ED001AF0EE410A104882
:1039000090ED101AB0EE410A0E4801F0DDFA0E48B3
:1039100090ED001AF0EE410A0C4890ED101AB0EE4E
:10392000410A0B4801F0D0FA00F014F810BD000075
:103930006C0000204008002060020020740000207D
:10394000F80700200C0200207C00002088080020DE
:103950005C03002010B5204890ED120A1F4880ED4E
:10396000000A1F4890ED120A1E4880ED000A1E480A
:1039700090ED120A1D4880ED000A184890ED001ADB
:10398000B1EE411AF0EE410A90ED011AB1EE411A82
:10399000B0EE410A164801F097FA124890ED001A6D
:1039A000B1EE411AF0EE410A90ED011AB1EE411A62
:1039B000B0EE410A0F4801F087FA0C4890ED001A6A
:1039C000F0EE410A90ED011AB0EE410A0A4801F00A
:1039D0007BFA00F05BF910BD60020020840000203B
:1039E0000C0200208C0000205C03002094000020CA
:1039F00008030020B4020020B00300200E48007A23
:103A0000032808D10D48007828B100200B49087020
:103A10009FED0B0A70470848007A012808D1074833
:103A2000007828B90120054908709FED060AF1E7E2
:103A30009FED040AEEE70000C406002068000020A5
:103A40000000B444000000007047000010B52DEDE8
:103A5000048B04461E48007801280CD100201C4924
:103A6000087094ED100A1B4880ED000A90ED000AE2
:103A7000BDEC048B10BD94ED100A1648D0ED000A81
:103A800030EE600A10EE101A0846FCF70BFD41EC10
:103A9000190BB0EE490AF0EE690A01F089F9B0EEAF
:103AA000408AF0EE608A9FED0C0B53EC102B51EC2A
:103AB000180BFCF70BFD03D8064890ED000AD7E77A
:103AC00094ED100A034880ED000A94ED100ACFE748
:103AD00024000020280000209A9999999999A93FDB
:103AE00010B52DED048B04461E48007801280CD13A
:103AF00000201C49087094ED100A1B4880ED000A54
:103B000090ED000ABDEC048B10BD94ED100A164830
:103B1000D0ED000A30EE600A10EE101A0846FCF7ED
:103B2000C1FC41EC190BB0EE490AF0EE690A01F054
:103B30003FF9B0EE408AF0EE608A9FED0C0B53EC3B
:103B4000102B51EC180BFCF7C1FC03D8064890ED84
:103B5000000AD7E794ED100A034880ED000A94EDBF
:103B6000100ACFE71C000020200000209A999999A4
:103B70009999A93F4FF480600B490880488088805C
:103B8000C8800020087248720021074801744174FF
:103B9000002005494881002103488181C18100201E
:103BA0000149488270470000C406002010B50A4849
:103BB000407A032802D1FDF7CCF80CE00648407AA1
:103BC000012802D1FDF7CBF805E00348407A02282E
:103BD00001D1FDF7CAF810BDC406002070472DE9D9
:103BE000F04104460D4616461F46DDF818804FF496
:103BF0000070216B08600020216B8860216BC86019
:103C00000820216B0861280A216B0875206B457517
:103C1000310A206B8175206BC675390A206B0176DD
:103C2000206B47764FEA1821206B8176206B80F855
:103C30001B8064212046FDF7B7FDBDE8F0812DE92A
:103C4000F04104460D4616461F4640F2FF10216B18
:103C500008600020216B8860216BC8600820216B00
:103C60000861280A216B0875206B4575310A206BA5
:103C70008175206BC675390A206B0176206B4776FB
:103C800064212046FDF790FDBDE8F08108B520488D
:103C900090ED120ABDEEC00A10EE100A03B21D48E4
:103CA00090ED120ABDEEC00A10EE100A02B21A48D8
:103CB00090ED120ABDEEC00A10EE100A01B21748CC
:103CC000FFF7BDFF164890ED120ABDEEC00A10EED8
:103CD000100A00B20090134890ED120ABDEEC00A1F
:103CE00010EE100A03B2104890ED120ABDEEC00AA1
:103CF00010EE100A02B20D4890ED120ABDEEC00A95
:103D000010EE100A01B20548FFF769FF08BD000078
:103D1000B003002008030020B40200200C0400209F
:103D2000B80100206401002010010020BC00002028
:103D30007047000000B593B0302107A8FCF778FA6F
:103D4000142102A8FCF774FA00BF00200190254856
:103D5000006840F08050234908600846006800F081
:103D60008050019000BF00BF00BF002001901E489E
:103D7000006840F480401C4908600846006800F470
:103D80008040019000BF00BF0220079001200A90F0
:103D900010200B9002200D9000210E9108210F9110
:103DA000A8211091022111910421129107A8FEF778
:103DB00095FB08B1FCF7CCFF0F2002900220039086
:103DC000002004904FF4A05005904FF480500690CE
:103DD000052102A8FEF722FA08B1FCF7B9FF13B0DB
:103DE00000BD0000403802400070004014480068E8
:103DF00040F47000124908601248006840F0010069
:103E00001049086000200F49083108600D4800681B
:103E10000D4908400B4908600C48091D0860081F3F
:103E2000006820F48020091F0860002005490C313B
:103E300008604FF000600249803908607047000058
:103E400088ED00E000380240FFFFF6FE103000244D
:103E500010B50248FEF7A3FE10BD0000500400207C
:103E600010B50248FEF79BFE10BD00008C04002038
:103E700010B50248FEF793FE10BD0000C8040020F4
:103E800010B50248FEF78BFE10BD0000880600202A
:103E9000002202682C4B98420ED0B0F1804F0BD01C
:103EA0002A4B984208D02A4B984205D0294B984279
:103EB00002D0294B984201D1012300E000231BB11D
:103EC00022F070024B681A431F4B984220D0B0F189
:103ED000804F1DD01D4B98421AD01D4B984217D0D1
:103EE0001C4B984214D01C4B984211D01B4B98424B
:103EF0000ED01B4B98420BD01A4B984208D01A4B4D
:103F0000984205D0194B984202D0194B984201D1E2
:103F1000012300E000231BB122F44072CB681A4356
:103F200002608B68C3620B688362074B984202D0C1
:103F3000094B984201D1012300E000230BB10B692A
:103F40000363012343617047000001400004004007
:103F500000080040000C0040000401400040014007
:103F6000004401400048014000180040001C00408F
:103F70000020004030B50023012404FA01F3046A54
:103F80009C430462046A02FA01F52C43046230BDCA
:103F900030B50C460021816821F47F4142EA0325B7
:103FA00025432943816030BD0A460021816821F004
:103FB000700142F0070319438160704730B5002457
:103FC00000220023056A25F001050562026A4368A4
:103FD000846924F0700424F003040D682C4322F05B
:103FE00002028D682A430F4DA84202D00E4DA8420E
:103FF00001D1012500E000256DB122F00802CD6855
:104000002A4322F0040223F4807323F400734D69E1
:104010002B438D692B43436084614D684563026285
:1040200030BD0000000001400004014030B5002414
:1040300000220023056A25F010050562026A436824
:10404000846924F4E04424F440740D6844EA0524AF
:1040500022F020028D6842EA0512104DA84202D0DB
:104060000F4DA84201D1012500E0002585B122F0C5
:104070008002CD6842EA051222F0400223F48063F8
:1040800023F400634D6943EA85038D6943EA8503A0
:10409000436084614D688563026230BD0000014069
:1040A0000004014030B5002400220023056A25F4F5
:1040B00080750562026A4368C46924F0700424F0C4
:1040C00003040D682C4322F400728D6842EA052235
:1040D000104DA84202D0104DA84201D1012500E0A8
:1040E000002585B122F40062CD6842EA052222F45F
:1040F000806223F4805323F400534D6943EA05138F
:104100008D6943EA05134360C4614D68C56302626B
:1041100030BD0000000001400004014030B5002225
:1041200000230024056A25F480550562036A44686B
:10413000C26922F4E04222F440720D6842EA05228C
:1041400023F400538D6843EA05330A4DA84202D098
:10415000094DA84201D1012500E0002525B124F434
:1041600080444D6944EA85144460C2614D68056429
:10417000036230BD000001400004014030B50B4631
:10418000144600210022026A056A25F00105056235
:10419000816921F0F00141EA041122F00A021A4378
:1041A0008161026230BD30B50B4614460021002209
:1041B000056A25F0100505628169026A21F47041E3
:1041C00041EA043122F0A00242EA03128161026254
:1041D00030BD70B50546AC6B0020E085E08420461C
:1041E000FEF7C3FE70BD0168C96821F490710268D2
:1041F000D1600168496921F0010102685161202103
:1042000080F83A10704710B504462068C06820F066
:1042100040002168C860202084F839002046FFF75C
:1042200040F9002010BD77B581B00446154694F8DA
:104230003A00202847D1029800B115B9012004B0F6
:1042400070BD00BF94F83800012801D10220F6E7C4
:10425000012084F8380000BF0298A062A5850020E4
:10426000E063222084F83A000020616B086502AE0A
:1042700032682368191D2B46606BFDF79DFD00BF5A
:10428000002000902068006800902068406800903E
:1042900000BF00BF00BF002084F8380000BF2068C6
:1042A000C06840F480702168C8602068406940F0B0
:1042B0000100216848612068406940F040002168A1
:1042C00048610020BBE70220B9E770B5044694F8C6
:1042D0003A00222844D1A068B0F5805F13D1A56AC6
:1042E000206940B920684068C0F308002880A06AAF
:1042F000801CA06219E020684068C0B22880A06AD3
:10430000401CA06211E0206938B920684068C1B241
:10431000A26A501CA062117007E02068406800F09B
:104320007F01A26A501CA0621170E08D401E80B215
:10433000E08598B92068C06820F490702168C86052
:104340002068406920F0010021684861202084F83D
:104350003A002046FFF7A4F8002070BD0020FCE7DB
:104360000220FAE72DE9F04104460025206805699E
:1043700025F44055E0680543206805612068C5685C
:1043800049F20C6085432169A068084361690843CC
:10439000E169084305432068C5602068456925F444
:1043A0004075A069054320684561E069B0F5004F9C
:1043B0007ED1C4492068884203D0C349206888421E
:1043C0005DD1FEF723F800EBC00101EB001061683E
:1043D0004900B0FBF1F06421B0FBF1F00601FEF7FB
:1043E00015F800EBC00101EB001061684900B0FB5B
:1043F000F1F7FEF70BF800EBC00101EB001061686C
:104400004900B0FBF1F06421B0FBF1F000EBC0011A
:1044100001EB0010A7EB8000322101EBC00064210A
:10442000B0FBF1F000F0F80006EB4006FDF7EEFF00
:1044300000EBC00101EB001061684900B0FBF1F72F
:10444000FDF7E4FF00EBC00101EB001061684900DB
:10445000B0FBF1F06421B0FBF1F000EBC00101EB27
:104460000010A7EB8000322101EBC0006421B0FBFB
:10447000F1F000F0070030442168886020E1FDF78A
:10448000B5FF00EBC00101EB001061684900B0FB13
:10449000F1F06421B0FBF1F00601FDF7A7FF00EB9E
:1044A000C00101EB001061684900B0FBF1F700E0CA
:1044B00045E0FDF79BFF00EBC00101EB00106168D8
:1044C0004900B0FBF1F06421B0FBF1F000EBC0015A
:1044D00001EB0010A7EB8000322101EBC00064214A
:1044E000B0FBF1F000F0F80006EB4006FDF77EFFB0
:1044F00000EBC00101EB001061684900B0FBF1F76F
:10450000FDF774FF00EBC00101EB0010616849008A
:10451000B0FBF1F06421B0FBF1F000EBC00101EB66
:104520000010A7EB8000322101EBC0006421B0FB3A
:10453000F1F000F00700304421688860C0E0614974
:104540002068884203D06049206888425CD1FDF72A
:104550005DFF00EBC00101EB001061688900B0FB5A
:10456000F1F6FDF753FF00EBC00101EB00106168AD
:104570008900B0FBF1F06421B0FBF1F000EBC00169
:1045800001EB0010A6EB8000322101EB001064214A
:10459000B0FBF1F000F0F006FDF738FF00EBC001D2
:1045A00001EB001061688900B0FBF1F06421B0FB01
:1045B000F1F006EB0016FDF729FF00EBC00101EB5F
:1045C000001061688900B0FBF1F7FDF71FFF00EBF9
:1045D000C00101EB001061688900B0FBF1F06421BB
:1045E000B0FBF1F000EBC00101EB0010A7EB800085
:1045F000322101EB00106421B0FBF1F000F00F005C
:104600003044216888605BE0FDF7F0FE00EBC001FC
:1046100001EB001061688900B0FBF1F6FDF7E6FEE2
:1046200000EBC00101EB001061688900B0FBF1F004
:104630006421B0FBF1F000EBC00101EB0010A6EB30
:104640008000322101EB00106421B0FBF1F000F09A
:10465000F006FDF7CBFE00EBC00101EB0010616836
:104660008900B0FBF1F06421B0FBF1F006EB00161D
:10467000FDF7BCFE00EBC00101EB00106168890092
:10468000B0FBF1F7FDF7B2FE00EBC00101EB00104B
:1046900061688900B0FBF1F06421B0FBF1F000EB40
:1046A000C00101EB0010A7EB8000322101EB0010EC
:1046B0006421B0FBF1F000F00F0030442168886005
:1046C000BDE8F0810010014000140140014691F85E
:1046D000390021282CD18868B0F5805F0FD10A6A93
:1046E0001088C0F308000B685860086918B9086A98
:1046F000801C086209E0086A401C086205E00B6A39
:10470000581C086218780B685860C88C401E80B22C
:10471000C88458B90868C06820F080000B68D86069
:104720000868C06840F040000B68D86000207047FF
:104730000220FCE710B50248FEF7CCFC10BD0000DB
:104740006805002010B50248FEF710FC10BD0000FF
:10475000A805002010B50248FEF7BCFC10BD000003
:10476000E805002000BFFEE710B5034A03490448EE
:1047700000F052F810BD00009800002090000020CA
:104780008800002010B52DED048B04461E480078EB
:1047900001280CD100201C49087094ED100A1B4818
:1047A00080ED000A90ED000ABDEC048B10BD94ED85
:1047B000100A1648D0ED000A30EE600A10EE101A0A
:1047C0000846FBF76FFE41EC190BB0EE490AF0EE1C
:1047D000690A00F0EDFAB0EE408AF0EE608A9FEDD3
:1047E0000C0B53EC102B51EC180BFBF76FFE03D89E
:1047F000064890ED000AD7E794ED100A034880EDD3
:10480000000A94ED100ACFE71500002018000020E0
:104810009A9999999999A93F70B52DED088B0446FD
:104820000D461646FE48007801281FD10020FC499D
:10483000087000BF18E0FB4991ED100AFA4901EB3E
:10484000800181ED000AF94991ED100AF84901EB68
:10485000800181ED000AF74991ED100AF64901EB5C
:10486000800181ED000A401C0A28E4DBED4890ED50
:10487000100AED48F149098800EB810080ED000A3B
:10488000EA4890ED100AEA48EC49098800EB8100FB
:1048900080ED000AE74890ED100AE748E7490988EB
:1048A00000EB810080ED000ADF4890ED000A10EE79
:1048B000101A0846FBF7F6FDE14A03C2DA4890ED0C
:1048C000000A10EE101A0846FBF7ECFDDD4A03C2A1
:1048D000D74890ED000A10EE101A0846FBF7E2FDEB
:1048E000D94A03C2D24890ED000A10EE101A0846C9
:1048F000FBF7D8FDD54A03C2CF4890ED000A10EE71
:10490000101A0846FBF7CEFDD14A03C2CA4890ED03
:10491000000A10EE101A0846FBF7C4FDCD4A03C288
:10492000C148C64A128800EB820090ED000A10EEE2
:10493000101A0846FBF7B6FD41EC180BC04890ED85
:10494000000B53EC102B51EC180BFBF7D7FD0DD2DD
:10495000B548BA4A128800EB820090ED000A10EECA
:10496000101A0846FBF79EFDB54A03C2AE48B34A8B
:10497000128800EB820090ED000A10EE101A084633
:10498000FBF790FD41EC180BAE4890ED000B53EC9B
:10499000102B51EC180BFBF799FD0DD2A248A74A3A
:1049A000128800EB820090ED000A10EE101A084603
:1049B000FBF778FDA34A03C29D48A04A128800EB8A
:1049C000820090ED000A10EE101A0846FBF76AFD0F
:1049D00041EC180B9C4890ED000B53EC102B51EC64
:1049E000180BFBF78BFD0DD29148944A128800EB0F
:1049F000820090ED000A10EE101A0846FBF752FDF7
:104A0000914A03C28A488D4A128800EB820090EDD9
:104A1000000A10EE101A0846FBF744FD41EC180B93
:104A20008A4890ED000B53EC102B51EC180BFBF760
:104A30004DFD0DD27E48814A128800EB820090ED38
:104A4000000A10EE101A0846FBF72CFD7F4A03C23D
:104A500079487A4A128800EB820090ED000A10EE45
:104A6000101A0846FBF71EFD41EC180B784890ED34
:104A7000000B53EC102B51EC180BFBF73FFD0DD244
:104A80006D486E4A128800EB820090ED000A10EE2D
:104A9000101A0846FBF706FD6D4A03C26648674ACE
:104AA000128800EB820090ED000A10EE101A084602
:104AB000FBF7F8FC41EC180B664890ED000B53EC4B
:104AC000102B51EC180BFBF701FD0DD25A485B4A35
:104AD000128800EB820090ED000A10EE101A0846D2
:104AE000FBF7E0FC5B4A03C254480088401C534972
:104AF0000880084600880A287DDB574890ED000AA8
:104B000080ED010A90ED020A80ED030A90ED040A9F
:104B100080ED050A002025E04F4991ED000A424949
:104B200001EB8001D1ED000A30EE200A4A4981ED07
:104B3000000A91ED020A3E4901EB8001D1ED000A25
:104B400030EE200A444981ED020A91ED040A3A4907
:104B500001EB8001D1ED000A30EE200A3E4981EDE3
:104B6000040A401C0928D7DB3B4890ED000A10EEF0
:104B7000101A0846FBF796FC41EC1B0B304890EDF1
:104B8000000B53EC102B51EC1B0BFBF7FDFB41EC26
:104B90001A0B2C4890ED000B53EC102B51EC1A0B18
:104BA000FBF7F2FB41EC190B9FED2C0B53EC102B98
:104BB000FBF7F0FB41EC180BFBF7B8FC264908604B
:104BC000084690ED020A10EE101A0846FBF76AFC40
:104BD00041EC1B0B1C4890ED000B53EC102B51ECDF
:104BE0001B0BFBF7D1FB41EC1A0B184890ED000BA7
:104BF00053EC102B00E0A6E051EC1A0BFBF7C4FBC2
:104C000041EC190B9FED150B53EC102BFBF7C2FB7E
:104C100041EC180BFBF78AFC0F498860084621E03D
:104C2000320000204008002010090020F807002072
:104C3000380900208808002060090020300000208A
:104C400038000020400000204800002050000020D4
:104C50005800002060000020440A002000000000EE
:104C60000000204090ED040A10EE101A0846FBF7F1
:104C700019FC41EC1B0B354890ED000B53EC102B4D
:104C800051EC1B0BFBF780FB41EC1A0B304890ED0D
:104C9000000B53EC102B51EC1A0BFBF775FB41EC9E
:104CA000190B1FED120B53EC102BFBF773FB41ECB0
:104CB000180BFBF73BFC27490861084690ED000AFA
:104CC000D0ED010A30EE600ADFED230A80EE201AF3
:104CD00084ED001A90ED020AD0ED030A30EE600A6E
:104CE000DFED1D0A80EE201A85ED001A90ED040A12
:104CF000D0ED050A30EE600ADFED170A80EE201ACB
:104D000086ED001A0020154908809FED150B164806
:104D100080ED000B9FED120B144880ED000B9FED12
:104D2000100B134880ED000B9FED0D0B114880ED2B
:104D3000000B9FED0B0B064880ED000B9FED080B61
:104D4000024880ED000BBDEC088B70BD58000020C0
:104D500060000020440A0020CDCCCC3D3000002073
:104D6000000000000000000040000020380000208B
:104D7000500000204800002002480068C0F30220D4
:104D8000704700000CED00E010B5002804DB0A07B6
:104D9000130E054A135406E00A07140E034A00F0E6
:104DA0000F031B1FD45410BD00E400E018ED00E019
:104DB0002DED020B019820F0004001909DED000BBD
:104DC00002B0704702E008C8121F08C1002AFAD1D9
:104DD00070477047002001E001C1121F002AFBD17B
:104DE00070470000FDF730F9FEF7A4FFFEF79CFBCB
:104DF000FEF77EFBFEF702FCFEF736FCFEF7BAFC80
:104E0000FEF7D4FCFEF7F0FCFEF74EFBFEF77CFC51
:104E1000FEF7B0FE0948FDF719FE0948FDF716FE3A
:104E2000084800F02BF800210648FCF76DFB6422CF
:104E300005490648FEF724FB00BFFEE750040020AA
:104E4000C80400200C04002004050020A805002050
:104E500010B588B0044660200190029400200390B1
:104E60000590002201A90448FDF795FF00210248A2
:104E7000FEF732F808B010BD8C04002010B58AB0DF
:104E80000446002005900690012007900020009025
:104E900001900290039004900E2009900120089048
:104EA00069462046FCF744F80448844203D104488C
:104EB0002063044860630AB010BD00000C040020A9
:104EC000D0080020EC08002070B52DED0E8B0446B4
:104ED000B0EE408AF0EE608A94ED090A84ED0A0A89
:104EE00084ED068AC4ED038A38EEC80A84ED090A07
:104EF00094ED0C0AD4ED0D0AB4EEE00AF1EE10FACE
:104F000012DD00207A49088094ED090AB5EEC00A46
:104F1000F1EE10FA07D294ED0C0AD4ED090A30EE46
:104F2000200A84ED0C0A93E094ED0C0AD4ED0E0AED
:104F3000B4EEE00AF1EE10FA12D200206C490880BB
:104F400094ED090AB5EEC00AF1EE10FA07DD94ED12
:104F50000C0AD4ED090A30EE200A84ED0C0A77E041
:104F6000D4ED0D0AB1EE001A80EE810AD4ED0D0ADF
:104F700030EEC00A10EE105A2846FBF793FA41ECC7
:104F8000190B94ED0C0A10EE101A0846FBF78AFA7A
:104F900041EC1B0BB0EE4B0AF0EE6B0AFFF708FF7B
:104FA000B0EE40AAF0EE60AA53EC192B51EC1A0BAC
:104FB000FBF78CFA0BD201204D49088094ED0C0AC6
:104FC000D4ED090A30EE200A84ED0C0A40E094ED9D
:104FD0000D0AF1EE000A80EE201A11EE105A284652
:104FE000FBF760FA41EC1A0B94ED0C0A10EE101A64
:104FF0000846FBF757FA41EC1E0BB0EE4E0AF0EEF6
:105000006E0AFFF7D5FEB0EE40CAF0EE60CA94ED2E
:105010000D0A10EE101A0846FBF744FA41EC1D0B7E
:1050200053EC1C2BFBF7B0F941EC1B0B53EC1A2B88
:10503000FBF7B0F941EC190BFBF71BFA2C49088080
:1050400094ED0C0AD4ED090A30EE200A84ED0C0A26
:1050500094ED000AD4ED090A20EE200A84ED0F0A2F
:10506000D4ED010A2248008800EE100AB8EE400A8A
:1050700020EE800AD4ED0C0A20EE200A84ED100AFE
:1050800094ED090AD4ED0A0A30EE600AD4ED020A62
:1050900020EE200A84ED110A94ED0F0AD4ED100AD7
:1050A00030EE200AD4ED110A30EE200A84ED120A07
:1050B00094ED120AD4ED140AB4EEE00AF1EE10FAFF
:1050C00004D894ED140A84ED120A0CE094ED120A4F
:1050D000D4ED130AB4EEE00AF1EE10FA03DB94ED1E
:1050E000130A84ED120A94ED120ABDEC0E8B70BD0A
:1050F000040400200000000000000000010203047E
:10510000060708090000000001020304000610164B
:105110000006101634510008000000200C040000A6
:1051200014070008A85100080C040020540A0000CD
:10513000D44D000811031124F45B0101086910C962
:105140001E0135093436012027C842333353401A33
:10515000A00401281B7A44040A11C4181A46040A40
:10516000FAC6540C29AE47954C091D541C409C4569
:1051700004080A4AC5333383408FC2753D54210B5E
:105180004E7742A8210F4A7B42E17A143E540D4EDD
:105190009A99993FA80809443333B33F8FC2F53D2C
:0851A000541B1C460482C600EA
:040000050800018965
:00000001FF
