:020000040800F2
:10000000284E002059020008215A000819550008FE
:100010001D5A00084B0800081D6D00080000000074
:100020000000000000000000000000009D0100082A
:10003000FF0C000800000000F10100086D5F0008DF
:1000400073020008730200087302000873020008BC
:1000500073020008730200087302000873020008AC
:10006000730200087302000873020008730200089C
:10007000730200087302000873020008730200088C
:10008000E50B00087302000873020008610800080D
:100090005108000873020008730200087302000888
:1000A000730200087302000873020008730200085C
:1000B00073020008BD600008CD60000873020008EC
:1000C000730200087302000873020008730200083C
:1000D00073020008E16C0008FD6C00080D6D00085B
:1000E000730200087302000873020008730200081C
:1000F000730200087302000873020008730200080C
:100100007302000873020008DD6000087302000833
:100110007302000873020008ED6000087302000813
:1001200073020008730200087302000873020008DB
:1001300073020008730200087302000873020008CB
:1001400073020008730200087302000873020008BB
:1001500073020008730200087302000873020008AB
:10016000730200087302000873020008730200089B
:100170007302000873020008730200080000000008
:100180007302000873020008DFF80CD000F020FBB7
:100190000048004789740008284E00202B4B19683E
:1001A0000868B0E8F04F80F30988BFF36F8F4FF015
:1001B000000080F3118870470000000006480068C6
:1001C000006880F3088862B661B6BFF34F8FBFF353
:1001D0006F8F00DF00BF00BF08ED00E0DFF80C000C
:1001E000016841F470010160704700BF88ED00E0D4
:1001F000EFF30980BFF36F8F144B1A681EF0100FD6
:1002000008BF20ED108A20E9F04F106008B44FF0CD
:10021000500080F31188BFF34F8FBFF36F8F08F04A
:10022000F3FB4FF0000080F3118808BC19680868E0
:10023000B0E8F04F1EF0100F08BFB0EC108A80F34A
:100240000988BFF36F8F704700BF00BF6C040020A8
:10025000EFF30580704700000648804706480047D6
:10026000FEE7FEE7FEE7FEE7FEE7FEE7FEE7FEE766
:10027000FEE7FEE759600008890100082DE9F05FFC
:100280000546002092469B46884606468146402405
:100290001BE0284641464746224600F0E2F9534615
:1002A0005A46C01A914110D311461846224600F012
:1002B000C9F92D1A67EB01084F462246012000219B
:1002C00000F0C0F917EB00094E41201EA4F1010413
:1002D000DFDC484631462A464346BDE8F09F40EA07
:1002E00001039B0703D009E008C9121F08C0042AB4
:1002F000FAD203E011F8013B00F8013B521EF9D29B
:100300007047D2B201E000F8012B491EFBD27047C2
:100310000022F6E710B513460A4604461946FFF7D1
:10032000F0FF204610BD2DE9FE4F804681EA030014
:10033000C00F0C46009021F0004123F00045B8EBBF
:100340000200A94105D24046214690461C460B4674
:10035000024623F00040104347D0270DC7F30A00A0
:10036000C3F30A510290401A019040286BDAC3F39C
:10037000130040F4801B0098924620B10023D2EB7A
:10038000030A63EB0B0B01985946C0F1400250463B
:1003900000F058F906460D4650465946019A00F0BD
:1003A00070F910EB08006141002487EA115284EAD9
:1003B000E7731A4340D0009A62B3019A012A4FEAC8
:1003C000075215DC001B61EB02014FF0004202EA0C
:1003D0000752CDE90042001C41F5801132462B4600
:1003E00000F0A7F903B0BDE8F08F40462146F9E7D9
:1003F000001B61EB0201001C41F5801300185B41FA
:100400002018A2F5001747EB030140EAD570B61992
:100410006D4111E06D084FEA360645EAC0754FEAB6
:100420000752001B61EB0201001C41F580114908D5
:100430004FEA30000019514132462B4603B0BDE867
:10044000F04F00F067B90098012240000023D0EB84
:10045000020263EBE073009821464FEAE074B8EBC8
:10046000000061EB0401E9E783F000435BE781F002
:10047000004158E72DE9F04D81EA030404F0004BF8
:1004800021F0004514464FF0000A23F0004150EAE5
:10049000050220D054EA01021DD0C5F30A570246D6
:1004A000C5F31303C1F31300C1F30A5640F48015DA
:1004B00043F48013A7EB0608101BD64608F2FD385C
:1004C00073EB050002D308F1010801E092185B41CB
:1004D000B8F1000F03DA00200146BDE8F08D0020DE
:1004E0004FF48011064684460EE0171B73EB050798
:1004F00005D3121B63EB050306434CEA010C4908C4
:100500004FEA300092185B4150EA0107EDD152EA00
:10051000030012D082EA040083EA0501084305D0F3
:10052000101BAB4106D20122002306E000224FF04F
:10053000004302E06FF0010253101AEB06004CEB8F
:10054000085110EB0A0041EB0B01BDE8F04D00F043
:10055000E1B8C1F30A5210B5C1F3130140F2FF3301
:1005600041F480119A4201DA002010BD40F2334379
:100570009A42A2F2334203DC524200F072F810BDFC
:10058000904010BD00F0004230F000400AD0C10D94
:1005900001F56071C0F3160042EA0151C20840073C
:1005A00011437047002001467047000030B5041E1B
:1005B00071F1000404DB4FF00044404264EB0101A0
:1005C000141E73F1000405DB1C464FF00043524239
:1005D00063EB04038B4208BF824230BD30B5041E7A
:1005E00071F1000404DB4FF00044404264EB010170
:1005F000141E73F1000405DB1C464FF00043524209
:1006000063EB0403994208BF904230BD01F0004300
:1006100030B421F0004150EA010206D00A0DA2F5E3
:100620006072C1F31301002A02DC30BC0020704765
:10063000440F44EAC104C100E01830BC00EBC250D2
:1006400000F031B8202A04DB203A00FA02F1002041
:1006500070479140C2F1200320FA03F31943904000
:100660007047202A04DB203A21FA02F0002170476B
:1006700021FA02F3D040C2F120029140084319460A
:100680007047202A06DBCB17203A41FA02F043EAF2
:10069000E07306E041FA02F3D040C2F1200291403B
:1006A0000843194670470029A8BF7047401C4900FD
:1006B00008BF20F00100704710B4B0FA80FC00FAC7
:1006C0000CF050EA010404BF10BC704749B1CCF1F2
:1006D000200421FA04F411FA0CF118BF012121437E
:1006E0000843A3EB0C01CB1D4FEA00614FEA102039
:1006F00042BF002010BC704700EBC35010440029DB
:10070000A4BF10BC7047401C490008BF20F0010086
:1007100010BC704710B5141E73F1000408DA401CB9
:1007200041F1000192185B411A4301D120F0010010
:1007300010BD2DE9F04D92469B4611B1B1FA81F200
:1007400002E0B0FA80F220329046FFF77BFF0446C9
:100750000F4640EA0A0041EA0B0153465A46084355
:1007600013D0114653EA010019D0C8F14002504697
:10077000FFF777FF05460E46504659464246FFF7BB
:1007800061FF084305D0012004E020463946BDE85A
:10079000F08D0020054346EAE0762C4337430A9863
:1007A0006305E40AA0EB08000022FD0A44EA47546E
:1007B0000A3002D500200146E9E701051019694118
:1007C000DDE9084500196941BDE8F04DA2E70000E8
:1007D000064C074D06E0E06840F0010394E807008E
:1007E00098471034AC42F6D3FFF7D2FC3497000898
:1007F0005497000870B58C1810F8015B15F00703CA
:1008000001D110F8013B2A1106D110F8012B03E0A9
:1008100010F8016B01F8016B5B1EF9D12B0705D4B1
:100820000023521E0DD401F8013BFAE710F8013BFA
:10083000CB1A921C03E013F8015B01F8015B521E16
:10084000F9D5A142D8D3002070BD00BFFEE700005B
:1008500010B5024800F0F6FC10BD0000E0040020D6
:1008600010B5024800F0EEFC10BD0000E0040020CE
:100870002DE9F04104460D46002700260DB9666BB0
:1008800000E0A66B206800F5D87000EB051000684A
:1008900000F00400B060B06858B9206800F5D87066
:1008A00000EB0510006840F2FF7101EA5050306023
:1008B0000AE0206800F5D87000EB051000686FF0C2
:1008C000604101EAD0007060206800F5D87000EB4C
:1008D0000510006800F00200F060206800F5D87094
:1008E00000EB0510406800F00F00306135622068B1
:1008F00000F5D87000EB05104068C0F30720F061E8
:10090000206800F5D87000EB05108068307520680D
:1009100000F5D87000EB05108068010A7175206839
:1009200000F5D87000EB05108068010CB1752068E7
:1009300000F5D87000EB05108068000EF075206897
:1009400000F5D87000EB0510C0683076206800F51F
:10095000D87000EB0510C068010A7176206800F5B8
:10096000D87000EB0510C068010CB176206800F566
:10097000D87000EB0510C068000EF0764DB920204D
:100980002168C8602068406920F00A002168486139
:1009900008E02020216808612068406920F05000AC
:1009A0002168486194F83C70222F01D0322F05D184
:1009B0002068406920F40F4021684861CDB994F85F
:1009C0003C00422804D0622806D072280CD107E0EF
:1009D000122084F83C000BE0322084F83C0007E051
:1009E000522084F83C0003E0012084F83C0000BF62
:1009F00019E094F83C00522804D0622806D07228EE
:100A00000CD107E0122084F83C000BE0222084F88F
:100A10003C0007E0422084F83C0003E0012084F819
:100A20003C0000BF00BF204600F0C2FF0020BDE830
:100A3000F08110B504462068406920F0010021686B
:100A4000486194F83C00122805D12068406920F4E0
:100A50000F402168486194F83C00422804D0522895
:100A600006D072280CD107E0222084F83C000BE06D
:100A7000322084F83C0007E0622084F83C0003E068
:100A8000012084F83C0000BF00BF204601F0D8F9E7
:100A9000002010BD70B505460C462078617840EA0C
:100AA0000120C0F30A0028806078C010A17840EAD5
:100AB0004110C0F30A006880A0788011E17840EA14
:100AC0008100217940EA8120C0F30A00A8802079C2
:100AD0004010617940EAC110C0F30A00E8806079F3
:100AE0000011800828726079C0F301106872A07943
:100AF000E17940EA012000B26881207A617A40EA17
:100B0000012001B2A981A07AE17A40EA012001B274
:100B1000E981217B2974617B6974A07BE17B40EAD8
:100B20000120688201F026FF074908600846006836
:100B300006490968401AB0F5FA7F03D902480068EF
:100B40000249086070BD0000140000201800002059
:100B50000121014A11707047040000201A4890EDED
:100B6000100A1A4880ED000A194890ED100A17483B
:100B700080ED010A174890ED100A144880ED020A32
:100B800090ED000A144880ED000A0F4890ED100A1D
:100B9000114880ED010A0D4890ED010A0F4880EDE3
:100BA000000A0B4890ED100A0C4880ED010A074836
:100BB00090ED020A0A4880ED000A064890ED100AFE
:100BC000074880ED010A704768090020B00A00203C
:100BD00020090020B00900207C00002084000020B3
:100BE0008C00002010B5024801F040F910BD000053
:100BF000500700200146087810381823B0FBF3F2A4
:100C00000848805CC865032A05D908686FF30900A5
:100C1000001D886503E008686FF309008865886D2A
:100C20007047000020970008014600208A6A8B69FF
:100C3000CBB932B1012A0DD0022A03D0032A10D138
:100C40000EE000BFCB6A03F08073B3F1807F00D168
:100C5000012007E0CB6AB3F1C07F00D1012001E0A1
:100C600000E000BF34E08B69B3F5005F1AD132B108
:100C7000012A07D0022A03D0032A11D10AE000BFBB
:100C800001200EE0CB6A03F08073B3F1807F00D1C6
:100C9000012006E0CB6AB3F1C07F00D1012000E063
:100CA00000BF15E032B1012A05D0022A04D0032A80
:100CB0000CD103E000BF00BF012008E0CB6A03F0C5
:100CC0008073B3F1807F00D1012000E000BF00BF3E
:100CD000704730B50468246824F4802405682C60CB
:100CE000046863608468402C04D10468A2600468CE
:100CF000E16003E00468A1600468E26030BD704711
:100D00002DE9F04104460D465A480078401C40B297
:100D1000584908700026002720686060686B407D95
:100D2000696B097D40EA0120206020686168401AF3
:100D3000E060E0685049884207DAA06B401CA0637D
:100D4000E06800F50050E0610EE0E06841F64C51CB
:100D5000884207DDA06B401EA063E068A0F500504C
:100D6000E06101E0E068E0612168A06B01EB4030E8
:100D7000A0602068A169401A00EE100AB8EEC00A0F
:100D8000DFED3E0A20EE200A9FED3D1AC0EE010A7B
:100D9000A06B4FF4B471484300EE100AB8EEC00ADD
:100DA00030EE800A84ED100AE269207D411C217535
:100DB00004F1200141F82020207D062801D10020E7
:100DC0002075002605E004F1200050F826000744B5
:100DD000761C062EF7DB062097FBF0F0E063686BCD
:100DE0000068B0F5007F04D8686B0068B0F5017F3B
:100DF00025D8686B807D00F0800090B1686BC17D64
:100E0000807D41EA00204FF6FF71081AC04313218C
:100E100090FBF1F000EE100AB8EEC00A84ED110A62
:100E20000DE0686BC17D807D41EA0020132190FBBD
:100E3000F1F000EE100AB8EEC00A84ED110A0D4878
:100E400090F90000062804DC0E48007808B1FFF78E
:100E500085FE0848007807280AD10A48007838B18A
:100E600001210948006806F0D7FB002005490870F9
:100E7000BDE8F08120000020B4E2FFFF0000B44391
:100E800000000046280000200C000020704710B52C
:100E900040F2E24006F046FB10BD10B54FF47A7008
:100EA00006F040FB10BD10B540F21E5006F03AFBB4
:100EB00010BD4A6B527D4B6B1B7D42EA032282615F
:100EC00082698260826942600269521C02617047D5
:100ED0000148B0F900007047EC0700200148B0F964
:100EE00002007047EC0700200148B0F90400704789
:100EF000EC0700200148B0F906007047EC0700201D
:100F000010B5FFF7F7FFA0F5806000EE100AF8EECD
:100F1000C00A4B4890ED000A9FED4A1A00EEC10A44
:100F200080ED000AFFF7E0FFA0F5806000EE100AF8
:100F3000F8EEC00A424890ED010A9FED421A00EE19
:100F4000C10A80ED010A04F057FE3D48D0ED020AC7
:100F500030EEC00A80ED020AFFF7BAFFA0F580600C
:100F600000EE100AB8EEC00ADFED370A20EE200AC4
:100F7000334880ED0A0AFFF7B1FFA0F5806000EE6C
:100F8000100AB8EEC00ADFED300A20EE200A2C4825
:100F900080ED090A90ED090AB1EE400ADFED2B0A57
:100FA00020EE200AD0ED0A0A9FED281A00EEC10AB1
:100FB000274880ED000A224890ED090ADFED230A58
:100FC00020EE200AD0ED0A0A9FED201A00EEC10A99
:100FD000204880ED000A1A4890ED090AB1EE400A57
:100FE000DFED1A0A20EE200AD0ED0A0A9FED171A4B
:100FF00000EEC10A184880ED000A114890ED090A78
:10100000DFED120A20EE200AD0ED0A0A9FED0F1A3A
:1010100000EEC10A114880ED000A094890ED000A6F
:101020000F4880ED000A064890ED010A0D4880ED5A
:10103000000A034890ED020A0B4880ED000A10BD3B
:10104000B00A0020F7CC9239B6F37D409A99993DC9
:10105000AC000020B4000020BC000020C400002030
:101060007C000020840000208C0000202DE9F0414D
:1010700007460C46002660691B2800D804E040F2B1
:101080006D115BA006F0F7F9A06910B1A069012805
:1010900000D104E04FF4B77155A006F0ECF9E06917
:1010A00010B1E069012800D104E040F26F1150A0B6
:1010B00006F0E1F9206910B12069012800D104E0AF
:1010C0004FF4B8714AA006F0D6F9206A10B1206A30
:1010D000012800D104E040F2711145A006F0CBF9DF
:1010E000606A1C2800D804E04FF4B97140A006F0F3
:1010F000C2F9217D012000FA01F64B4D05F500757E
:10110000286840F001002860286820F47C5028609E
:101110002868616A40EA01202860E869B043E86114
:10112000A5F50075E069C8B9D5F80C02B043C5F85B
:101130000C02A08880B2A18940EA014105F5107037
:10114000626940F83210208880B2218940EA01416A
:1011500005F51070626900EBC2004160E06901288A
:1011600019D1D5F80C023043C5F80C02A08880B222
:10117000218840EA014105F51070626940F832109B
:10118000A08980B2218940EA014105F510706269A9
:1011900000EBC2004160A06928B9D5F80402B04351
:1011A000C5F8040204E0D5F804023043C5F804028F
:1011B000206920B9D5F81402B043C5F8140220699B
:1011C000012804D1D5F814023043C5F81402206A6E
:1011D000012804D1D5F81C023043C5F81C02D5F80B
:1011E000000220F00100C5F800020020BDE8F081F7
:1011F0002E2E2F447269766572732F53544D3332FD
:10120000463478785F48414C5F4472697665722F46
:101210005372632F73746D3332663478785F68610C
:101220006C5F63616E2E63000064004004490968CE
:10123000496941F00201024A126851617047000099
:10124000E00400202DE9F041044600250026002797
:10125000A8462068C068C0F3001520684069C0F344
:10126000C0062DB126B148F4007810202168C8606E
:1012700020680069C0F3001520684069C0F380163B
:101280002DB126B148F480681020216808612068DB
:10129000406900F0010000283BD0206880687A494E
:1012A0000840884201D1012000E000200546206866
:1012B000806876490840884201D1012000E0002082
:1012C00006462068806872490840884201D10120A2
:1012D00000E0002007460DB906B9D7B12068806844
:1012E000C0F3400520688068C0F34026206880680D
:1012F000C0F340470DB906B91FB12046FFF799FB6F
:1013000001E048F400682068806862490843216869
:1013100088602068C06800F0030520684069C0F359
:10132000400625B11EB100212046FFF7A1FA206832
:10133000006900F0030520684069C0F3001625B17C
:101340001EB101212046FFF793FA206C40EA080005
:1013500020642068806900F0010520684069C0F3BE
:10136000002620684069C0F3C0372DB126B11FB1F7
:10137000206C40F00100206420688069C0F34005C3
:1013800020684069C0F3402620684069C0F3C03738
:101390002DB126B11FB1206C40F0020020642068FE
:1013A0008069C0F3800520684069C0F3802620680A
:1013B0004069C0F3C0372DB126B11FB1206C40F099
:1013C000040020642068806900F0700008B90120E2
:1013D00000E00020054620684069C0F3C026206870
:1013E0004069C0F3C03795BB8EB387B3206880696E
:1013F00000F07005402D1BD006DC102D09D0202DEB
:101400000CD0302D24D10EE0502D16D0602D1FD1E0
:1014100018E0206C40F0080020641AE0206C40F0D6
:101420001000206415E0206C40F02000206410E0E3
:10143000206C40F0400020640BE0206C40F0800005
:10144000206406E0206C40F48070206401E007E036
:1014500000BF00BF2068806920F0700021688861AB
:10146000206C78B1042021684860012084F83C0099
:101470002068406948F65B718843216848612046CE
:10148000FFF7D4FEBDE8F08103000004000300086C
:10149000000003101905010070B504460026002560
:1014A0000CB9012070BDB1492068884203D0B04911
:1014B0002068884200D103E0B921AEA005F0DBFF2F
:1014C000A06910B1A069012800D103E0BA21A9A048
:1014D00005F0D1FFE06910B1E069012800D103E017
:1014E000BB21A4A005F0C7FF206A10B1206A012823
:1014F00000D103E0BC219FA005F0BDFF606A10B1E0
:10150000606A012800D103E0BD219AA005F0B3FF75
:10151000A06A10B1A06A012800D103E0BE2195A005
:1015200005F0A9FFE06A10B1E06A012800D103E0EC
:10153000BF2190A005F09FFFA06858B1A068B0F14E
:10154000804F07D0A068B0F1004F03D0A068B0F181
:10155000404F00D103E0C02186A005F08CFFE06879
:1015600058B1E068B0F1807F07D0E068B0F1007F4B
:1015700003D0E068B0F1407F00D103E0C1217DA03D
:1015800005F079FF2069B0F5702F00D803E0C22183
:1015900078A005F070FF6069B0F5E00F00D803E0B7
:1015A000C32174A005F067FF606820B16068B0F5E2
:1015B000806F00D803E0C4216EA005F05CFF94F8B2
:1015C0003C0028B9002084F83D00204600F0EEF8E9
:1015D000022084F83C002068006820F002002168A6
:1015E00008602068006840F001002168086001F090
:1015F000C1F905460EE001F0BDF9401B0A2809D9E2
:10160000032084F83C0000BF002084F83D0000BFA8
:10161000032047E72068406800F001000028EAD076
:101620002068406800F00100002875D0A0690128FA
:1016300006D12068006840F080002168086005E05D
:101640002068006820F0800021680860E0690128B7
:1016500006D12068006840F040002168086005E07D
:101660002068006820F0400021680860206A012896
:1016700006D12068006840F020002168086005E07D
:101680002068006820F0200021680860606A012856
:1016900006D12068006840F010002168086005E06D
:1016A0002068006820F0100021680860A06A012806
:1016B00006D12068006840F008002168086005E055
:1016C0002068006820F0080021680860E06A0128AE
:1016D00006D12068006840F004002168086005E039
:1016E0002068006820F0040021680860D4E9020145
:1016F000084321690843616908436168491E08433A
:101700002168C8612068006820F001002168086035
:1017100001F030F905460FE01AE001F02BF9401B0B
:101720000A2809D9032084F83C0000BF002084F86F
:101730003D0000BF0320B5E62068406800F00100CE
:101740000028EAD12068406800F0010000B90126B5
:10175000012E06D100202064012084F83C000020E6
:10176000A0E6042084F83C0001209BE600640040D1
:10177000006800402E2E2F447269766572732F53D5
:10178000544D3332463478785F48414C5F44726937
:101790007665722F5372632F73746D3332663478AB
:1017A000785F68616C5F63616E2E630010B586B010
:1017B0000446142101A8FEF7ABFD234920688842A6
:1017C00040D100BF002000902048006840F0007029
:1017D0001E4908600846006800F00070009000BFD5
:1017E00000BF00BF0020009018481038006840F08B
:1017F00001001649103908600846006800F0010031
:10180000009000BF00BF4FF4C05001900220029032
:1018100000200390032004900920059001A90C48A2
:1018200000F04CFE00220521132001F0DDFA132008
:1018300001F0A4FA00220521142001F0D5FA1420A9
:1018400001F09CFA06B010BD006400404038024030
:101850000000024070B504460D460DB1012D00D1C7
:1018600004E040F2F33144A005F005FE8DB994F890
:101870003C0022280BD094F83C00422807D094F872
:101880003C00622803D094F83C00722801D1022069
:1018900070BD012D11D194F83C0032280BD094F882
:1018A0003C00522807D094F83C00622803D094F8FA
:1018B0003C00722801D10220EAE700BF94F83D0005
:1018C000012801D10220E3E7012084F83D0000BF98
:1018D000CDB994F83C00122804D0322806D0522802
:1018E0000CD107E0422084F83C000BE0622084F831
:1018F0003C0007E0722084F83C0003E0222084F8DA
:101900003C0000BF19E094F83C00122804D02228C3
:1019100006D042280CD107E0522084F83C000BE0AE
:10192000622084F83C0007E0722084F83C0003E069
:10193000322084F83C0000BF00BF002020642068F3
:10194000406948F6017108432168486100BF0020E2
:1019500084F83D0000BF35B92068406940F00A00B6
:101960002168486105E02068406940F05000216826
:10197000486100208CE700002E2E2F4472697665A6
:1019800072732F53544D3332463478785F48414C4C
:101990005F4472697665722F5372632F73746D336F
:1019A00032663478785F68616C5F63616E2E6300C5
:1019B00010B504463F480068401C3E49086000F0EE
:1019C000D9FF3D490968401AB0F5FA7F03D900F004
:1019D000D1FF39490860606B0068A0F20120072838
:1019E0005ED2DFE800F00412202E3C47520031485E
:1019F0000068322804D821463048FFF75AFA03E03D
:101A000021462E48FFF77CF94AE02A480068322830
:101A100004D821462A48FFF74CFA03E0214628481B
:101A2000FFF76EF93CE023480068322804D82146CD
:101A30002448FFF73EFA03E021462248FFF760F909
:101A40002EE01C480068322804D821461E48FFF7C3
:101A500030FA03E021461C48FFF752F920E0214606
:101A60001A48FFF74DF9194805F068F9174880ED55
:101A7000100A15E021461648FFF742F9144804F011
:101A8000E1F8134880ED100A0AE021461148FFF7FB
:101A900037F9104804F020F90E4880ED100A00BF15
:101AA00000BF0D480068406940F002000A4909681B
:101AB000486110BD1C000020240000200008002008
:101AC0004808002090080020D808002020090020A5
:101AD00068090020B0090020E00400202DE9F04151
:101AE00004460E4604250027206B806818B1206B41
:101AF0008068042800D104E04FF40E71BFA005F007
:101B0000BAFC206BC06818B1206BC068022800D1F5
:101B100004E040F23921B9A005F0ADFC206B00696A
:101B2000082800D804E040F23A21B4A005F0A3FC54
:101B30002068806800F08060B0F1806F0DD0206870
:101B4000806800F00060B0F1006F06D02068806807
:101B500000F08050B0F1805F7ED100BF94F83D006E
:101B6000012802D10220BDE8F081012084F83D0067
:101B700000BF94F83C00222804D0322806D0622806
:101B80000CD107E0422084F83C000BE0522084F89E
:101B90003C0007E0722084F83C0003E0122084F847
:101BA0003C0000BF00BF2068806800F08060B0F19A
:101BB000806F01D1002509E02068806800F0006096
:101BC000B0F1006F01D1012500E00225206800F589
:101BD000C07000EB0510006800F00101206800F5FE
:101BE000C07000EB05100160206B8068F0B9206BBD
:101BF0000068B0F5006F00D204E040F266217FA0DB
:101C000005F039FC206800F5C07000EB0510006895
:101C1000216BC968226B128841EA4251084321684E
:101C200001F5C07101EB0511086022E0206B4068EE
:101C3000B0F1005F00D204E04FF41B716FA005F01B
:101C40001AFC206800F5C07000EB05100168206BDD
:101C50008068226B526800E0CBE040EAC200226B51
:101C6000D26810430143206800F5C07000EB0510F6
:101C70000160206B007C00F00F00216B0861206880
:101C800000F5C07000EB0510406820F00F012068DF
:101C900000F5C07000EB05104160206800F5C070D1
:101CA00000EB05104068216B09690843216801F5C4
:101CB000C07101EB05114860206BC07D0106206BEF
:101CC000807D41EA0041206B407D41EA0020216B8C
:101CD000097D0843216801F5C07101EB0511886099
:101CE000206BC07E0106206B807E41EA0041206BA4
:101CF000407E41EA0020216B097E0843216801F5FE
:101D0000C07101EB0511C860206800F5C07000EBE0
:101D10000510006840F00101206800F5C07000EB7C
:101D20000510016000F026FE074620E0701CF0B1AF
:101D300026B100F01FFEC01BB04218D9032084F862
:101D40003C001DB980202168886009E0012D03D185
:101D5000E8032168886003E04FF400002168886090
:101D600000BF002084F83D0000BF0320FBE64DB912
:101D7000206880682F490840884201D1012016E080
:101D8000002014E0012D09D1206880682A4908400C
:101D9000884201D101200AE0002008E02068806824
:101DA00026490840884201D1012000E00020002897
:101DB000BCD094F83C00422804D0522806D07228A7
:101DC0000CD107E0222084F83C000BE0322084F89C
:101DD0003C0007E0622084F83C0003E0012084F826
:101DE0003C0000BF00BF00BF002084F83D0000BFE2
:101DF000B9E6042084F83C000120B4E62E2E2F44DE
:101E00007269766572732F53544D33324634787845
:101E10005F48414C5F4472697665722F5372632F3D
:101E200073746D3332663478785F68616C5F6361B8
:101E30006E2E63000300000400030008000003107E
:101E40007047014691F83500022803D0802048658C
:101E500001207047052081F835000868006820F0EF
:101E600001000A6810600020F3E70000F8B504469E
:101E7000002000908C4800684FF41651B0FBF1F739
:101E8000A56D2E6894F85C1008208840304098B109
:101E90002068006800F0040070B12068006820F03D
:101EA00004002168086094F85C1008208840A8604D
:101EB000606D40F00100606594F85C10012088407E
:101EC000304068B12068406900F0800040B194F86B
:101ED0005C1001208840A860606D40F002006065E1
:101EE00094F85C1004208840304068B12068006895
:101EF00000F0020040B194F85C1004208840A86013
:101F0000606D40F00400606594F85C10102088401B
:101F1000304078B32068006800F0080050B394F8AF
:101F20005C1010208840A8602068006800F48020C1
:101F300080B12068006800F4002028B9206CC8B186
:101F40002046216C884715E0A06C98B12046A16C12
:101F500088470FE02068006800F4807028B9206886
:101F6000006820F0080021680860206C10B120464D
:101F7000216C884794F85C1020208840304000286D
:101F800065D02068006800F0100000285FD094F849
:101F90005C1020208840A86094F83500052828D1DE
:101FA0002068006820F016002168086020684069F9
:101FB00020F0800021684861206C08B9A06C28B12D
:101FC0002068006820F008002168086094F85C1020
:101FD0003F208840A86000BF002084F8340000BF84
:101FE000012084F83500206D10B12046216D88470E
:101FF000F8BD2068006800F4802080B12068006887
:1020000000F4002028B9606C10B12046616C88474C
:102010001DE0E06BD8B12046E16B884717E02068EF
:10202000006800F4807068B92068006820F0100033
:102030002168086000BF002084F8340000BF012040
:1020400084F83500E06B10B12046E16B8847606D85
:1020500038B3606D00F00100F0B1052084F8350060
:102060002068006820F001002168086000BF009827
:10207000401C0090B84200D905E02068006800F0DC
:1020800001000028F3D100BF00BF002084F8340015
:1020900000BF012084F83500E06C10B12046E16CEF
:1020A000884700BFA4E70000100000202DE9F041A0
:1020B0000446002500F05EFC074614B90120BDE887
:1020C000F081C0492068884249D0BE491831206853
:1020D000884244D0BB493031206888423FD0B9495A
:1020E0004831206888423AD0B64960312068884239
:1020F00035D0B44978312068884230D0B149903128
:10210000206888422BD0AF49A8312068884226D069
:10211000AD492068884222D0AB49183120688842F6
:102120001DD0A94930312068884218D0A6494831CD
:102130002068884213D0A4496031206888420ED0BC
:10214000A14978312068884209D09F4990312068A0
:10215000884204D09C49A8312068884200D103E01D
:10216000C8219AA005F087F96068D8B16068B0F11D
:10217000007F17D06068B0F1806F13D06068B0F155
:10218000C06F0FD06068B0F1006F0BD06068B0F125
:10219000206F07D06068B0F1406F03D06068B0F185
:1021A000606F00D103E0C92188A005F064F9A06840
:1021B00028B1A068402802D0A068802800D103E0A0
:1021C000CA2182A005F057F9E068B0F5007F01D080
:1021D000E06800B903E0CB217CA005F04CF9206950
:1021E000B0F5806F01D0206900B903E0CC2177A061
:1021F00005F041F9606938B16069B0F5006F03D04E
:102200006069B0F5805F00D103E0CD216FA005F0DB
:1022100032F9A06938B1A069B0F5005F03D0A069B8
:10222000B0F5804F00D103E0CE2168A005F023F97E
:10223000E06930B1E069B0F5807F02D0E069202824
:1022400000D103E0CF2161A005F015F9206A58B153
:10225000206AB0F5803F07D0206AB0F5003F03D078
:10226000206AB0F5403F00D103E0D02157A005F02F
:1022700002F9606A10B1606A042800D103E0D1213C
:1022800052A005F0F8F8606A002835D0A06A40B185
:10229000A06A012805D0A06A022802D0A06A0328FB
:1022A00000D103E0D62149A005F0E5F8E06A58B175
:1022B000E06AB0F5000F07D0E06AB0F1807F03D08C
:1022C000E06AB0F1C07F00D103E0D7213FA005F064
:1022D000D2F8206B58B1206BB0F5001F07D0206BEF
:1022E000B0F5800F03D0206BB0F5C00F00D103E034
:1022F000D82136A005F0BFF800BF002084F83400D4
:1023000000BF022084F835002068006820F001003A
:10231000216808600AE000F02DFBC01B052805D9E4
:1023200020206065032084F83500C8E62068006836
:1023300000F001000028EED1206805683148054012
:10234000D4E901010843E168084321690843616950
:102350000843A1690843E1690843216A084305432A
:10236000606A042803D1D4E90B01084305432068BF
:1023700005602068456925F00705606A0543606AC5
:1023800004280DD1A06A0543E06A48B12046FEF753
:102390004BFC28B140206065012084F835008EE6B2
:1023A000206845612046FEF725FC064694F85C103F
:1023B0003F208840B06000206065012084F835002F
:1023C00000207CE610600240106402402E2E2F4454
:1023D0007269766572732F53544D33324634787870
:1023E0005F48414C5F4472697665722F5372632F68
:1023F00073746D3332663478785F68616C5F646DD6
:10240000612E63003F8010F02DE9F04104460E4636
:1024100017461D464FF000081DB1B5F5803F00D2AC
:1024200004E040F2A51117A005F025F800BF94F8CC
:102430003400012802D10220BDE8F081012084F897
:10244000340000BF94F83500012811D1022084F82F
:102450003500002060652B463A4631462046FEF79F
:1024600038FC2068006840F001002168086006E040
:1024700000BF002084F8340000BF4FF0020840463F
:10248000DAE700002E2E2F447269766572732F539F
:10249000544D3332463478785F48414C5F4472691A
:1024A0007665722F5372632F73746D33326634788E
:1024B000785F68616C5F646D612E63002DE9F8439D
:1024C00006460C464FF00009C8460025EA488642F9
:1024D00017D0EA48864214D0E948864211D0E9482C
:1024E00086420ED0E84886420BD0E848864208D0A3
:1024F000E748864205D0E748864202D0E648864251
:1025000000D103E0C321E5A004F0B5FF208880B22C
:1025100020B120686FF30F0000B903E0C421DFA0F1
:1025200004F0A9FF606830B36068012823D06068B8
:10253000112820D0606802281DD0606812281AD0A7
:10254000E5496068884216D0E4496068884212D044
:10255000E349606888420ED0E249606888420AD048
:10256000E1496068884206D0E0496068884202D04C
:102570006068032800D103E0C521C8A004F07BFFF8
:10258000A06828B1A068012802D0A068022800D164
:1025900003E0C621C1A004F06EFF002766E1012020
:1025A00000FA07F9206800EA0908C84570D1606898
:1025B000022802D0606812286BD12069002866D0FA
:1025C0002069092863D02069F0B32069E0B320694D
:1025D000D0B32069C0B32069012858D020690128F0
:1025E00055D02069022852D0206902284FD0206996
:1025F00002284CD02069032849D02069042846D0FD
:102600002069042843D02069042840D02069052887
:102610003DD0206905283AD02069092837D02069A3
:10262000062834D02069092831D0206907282ED007
:10263000206907282BD02069072828D0206908287E
:1026400025D02069082800E021E020D02069082852
:102650001DD0206909281AD02069092817D02069BF
:102660000A2814D020690A2811D020690B280ED01E
:1026700020690C280BD020690C2808D020690D286F
:1026800005D020690C2802D020690F2802D105E06E
:10269000E2E017E0D72181A004F0EDFEF90806F191
:1026A000200050F821507807C10E0F208840854344
:1026B0007907C90E206988400543F90806F1200012
:1026C00040F82150356879000320884085432079FF
:1026D00000F00300790088400543356060680128F8
:1026E00008D06068022805D06068112802D06068B0
:1026F000122823D1E06840B1E068012805D0E068E5
:10270000022802D0E068032800D103E0EA2163A098
:1027100004F0B1FEB5687900032088408543790054
:10272000E06888400543B56075680120B84085437E
:102730002079C0F30010B84005437560F568790052
:102740000320884085437900A06888400543F560F0
:10275000606800F08050B0F1805F7DD100BF002044
:1027600000906348006840F4804061490860084672
:10277000006800F48040009000BF00BF5D48B908C9
:1027800050F82150B807010F0F20884085433A4880
:10279000864201D1002023E03848864201D1012041
:1027A0001EE03748864201D1022019E035488642B2
:1027B00001D1032014E03448864201D104200FE007
:1027C0003248864201D105200AE03148864201D1D3
:1027D000062005E02F48864201D1072000E00820AE
:1027E000B907090F884005434248B90840F821500D
:1027F0004148056825EA0805606800F48030B0F5B6
:10280000803F01D145EA08053B480560001D056889
:1028100025EA0805606800F40030B0F5003F01D1FA
:1028200045EA08053448001D0560001D056825EAD5
:102830000805606800F48010B0F5801F01D145EAFA
:1028400008052D4808300560001D056825EA0805C3
:10285000606800F4001000E007E0B0F5001F01D14F
:1028600045EA080524480C3005607F1C102FFFF452
:1028700096AEBDE8F883000000000240000402406C
:1028800000080240000C0240001002400014024008
:1028900000180240001C0240002002402E2E2F444F
:1028A0007269766572732F53544D3332463478789B
:1028B0005F48414C5F4472697665722F5372632F93
:1028C00073746D3332663478785F68616C5F6770FB
:1028D000696F2E630000000000001110000021103D
:1028E0000000311000001210000022100000321011
:1028F0004438024008380140003C014070B50646AB
:102900000C461546A0B218B1200C000400B904E032
:1029100040F2AF1108A004F0AEFD0DB1012D00D1C1
:1029200004E04FF4D87104A004F0A5FD0DB1B4612A
:1029300001E02004B06170BD2E2E2F4472697665CF
:1029400072732F53544D3332463478785F48414C7C
:102950005F4472697665722F5372632F73746D339F
:1029600032663478785F68616C5F6770696F2E6378
:102970000000000001480068704700006804002063
:1029800070B50446002600250CB9012070BD7A49B7
:102990002068884207D079492068884203D0784966
:1029A0002068884200D104E04FF4B77175A004F0AC
:1029B00062FD606820B181496068884200D804E007
:1029C00040F26F116FA004F056FDA06818B1A06826
:1029D000B0F5804F00D104E04FF4B87169A004F065
:1029E0004AFDE0686FF3090000B904E040F271119C
:1029F00064A004F040FD2069B0F5804F03D0206949
:102A0000B0F5404F00D104E04FF4B9715DA004F07F
:102A100032FD606910B16069012800D104E040F224
:102A2000731158A004F027FDA06920F0FE0000B942
:102A300004E04FF4BA7153A004F01DFDE06910B139
:102A4000E069402800D104E040F275114DA004F087
:102A500012FD206A10B1206A802800D104E04FF4F2
:102A6000BB7148A004F007FD94F83D0028B9002090
:102A700084F83C00204600F0A7F8242084F83D00AC
:102A80002068006820F001002168086000F0E0FB89
:102A900005464B48B5FBF0F620684660494960683A
:102AA000884201D8701C07E04FF4967070434FF4D1
:102AB0007A71B0FBF1F0401C2168086241496068FE
:102AC00088420ED860684000B5FBF0F0C0F30B0000
:102AD000042801D204202DE060684000B5FBF0F02E
:102AE00028E0A06828B9606800EB4000B5FBF0F072
:102AF00008E0606800EBC00101EB0010B5FBF0F0EE
:102B000040F48040C0F30B0008B9012012E0A06837
:102B100028B9606800EB4000B5FBF0F008E06068A1
:102B200000EBC00101EB0010B5FBF0F040F4804079
:102B300040F400402168C861D4E9070108432168D6
:102B40000860D4E90310084321688860D4E90501CE
:102B500008432168C8602068006840F001002168CF
:102B6000086000202064202084F83D0000202063BD
:102B700084F83E0000BF09E70054004000580040C0
:102B8000005C00402E2E2F447269766572732F53BD
:102B9000544D3332463478785F48414C5F44726913
:102BA0007665722F5372632F73746D333266347887
:102BB000785F68616C5F6932632E6300801A06007B
:102BC00040420F00A086010010B586B004461421D3
:102BD00001A8FDF79DFB1B492068884230D100BF4A
:102BE000002000901848006840F002001649086074
:102BF0000846006800F00200009000BF00BF4FF4DC
:102C00004070019012200290012003900320049054
:102C10000420059001A90D48FFF750FC00BF0020DB
:102C2000009009481030006840F400100649103147
:102C300008600846006800F40010009000BF00BF64
:102C400006B010BD0054004030380240000402407D
:102C500002480068401C0149086070476804002071
:102C600010B50D48006840F400700B490860084634
:102C7000006840F4806008600846006840F4807096
:102C80000860032000F01AF9002000F007F800F0B7
:102C90004BF8002010BD0000003C024070B588B029
:102CA00004460025002600222146362000F09CF82C
:102CB000362000F063F800BF00200190164800683D
:102CC00040F01000144908600846006800F0100049
:102CD000019000BF00BF02A903A800F091FA00F024
:102CE000B7FA45000D48B5FBF0F0461E0C480D49FB
:102CF000086040F2E7310B48C16046600021016185
:102D0000816000F08DFE20B9064800F09BFF08B0FE
:102D100070BD0120FBE700004038024040420F0038
:102D200000100040B007002008B500BF0020009050
:102D30001148006840F480400F4908600846006868
:102D400000F48040009000BF00BF00BF0020009052
:102D5000081F006840F08050091F0860084600689E
:102D600000F08050009000BF00BF00220F21901E95
:102D700000F03AF808BD00004438024010B504469F
:102D8000002C00DB03E0CE2108A004F074FB2046F9
:102D9000002809DB00F01F02012191404209920046
:102DA00002F1E022C2F8001100BF10BD2E2E2F4408
:102DB0007269766572732F53544D33324634787886
:102DC0005F48414C5F4472697665722F5372632F7E
:102DD00073746D3332663478785F68616C5F636FEB
:102DE000727465782E6300002DE9F05F80460C4612
:102DF00015460027102D00D203E0BA2120A004F0D0
:102E00003AFB102C00D203E0BB211DA004F033FBE1
:102E100004F0FCFA0746394622462B4601F007002B
:102E2000C0F1070ABAF1040F02D94FF0040A01E019
:102E3000C0F1070AD14600F1040ABAF1070F02D225
:102E40004FF0000A01E0A0F1030AD4464FF0010A56
:102E50000AFA09FAAAF1010A0AEA020A0AFA0CFABB
:102E60004FF0010B0BFA0CFBABF1010B0BEA030B60
:102E70004AEA0B063146404604F0D0FABDE8F09F1E
:102E80002E2E2F447269766572732F53544D333250
:102E9000463478785F48414C5F4472697665722F9A
:102EA0005372632F73746D3332663478785F686160
:102EB0006C5F636F727465782E63000010B5044612
:102EC000072C07D0062C05D0052C03D0042C01D0EC
:102ED000032C00D103E0A22109A004F0CCFA00BF2A
:102EE00004F00701154A10684FF6FF021040144A1B
:102EF000024342EA0120114A106000BF10BD0000E9
:102F00002E2E2F447269766572732F53544D3332CF
:102F1000463478785F48414C5F4472697665722F19
:102F20005372632F73746D3332663478785F6861DF
:102F30006C5F636F727465782E6300000CED00E0C7
:102F40000000FA0570B504460D460CB9012070BDAD
:102F50002068012803D320680F2800D804E04FF42C
:102F6000107195A004F087FA6DB1012D0BD0022DE0
:102F700009D0032D07D0042D05D0052D03D0062D33
:102F800001D0072D00D104E040F241218AA004F0D5
:102F900072FA9748006800F00F00A84209D29449DD
:102FA0000D700846006800F00F00A84201D0012013
:102FB000CDE7207800F0020002283DD1207800F013
:102FC0000400042805D18B48006840F4E05089498A
:102FD0000860207800F00800082805D185480068BE
:102FE00040F4604083490860A068B8B1A0688028B8
:102FF00014D0A068902811D0A068A0280ED0A06896
:10300000B0280BD0A068C02808D0A068D02805D070
:10301000A068E02802D0A068F02800D104E04FF4B6
:10302000197165A004F027FA7248006820F0F000DA
:10303000A16808436F490860207800F0010000286B
:103040004ED0606840B16068012805D060680228F1
:1030500002D06068032800D104E040F26B2156A042
:1030600004F009FA6068012807D16248083800684E
:10307000C0F34040B8B9012069E76068022802D077
:103080006068032807D15B4808380068C0F34060D7
:1030900048B901205BE7574808380068C0F3400092
:1030A00008B9012053E75348006820F00300616825
:1030B000084350490860FFF75DFC064608E0FFF74B
:1030C00059FC801B41F28831884201D903203EE738
:1030D0004848006800F00C006168B0EB810FEED149
:1030E0004348006800F00F00A84209D940490D701C
:1030F0000846006800F00F00A84201D0012026E732
:10310000207800F0040004281FD1E06878B1E0685E
:10311000B0F5805F0BD0E068B0F5A05F07D0E06845
:10312000B0F5C05F03D0E068B0F5E05F00D104E027
:1031300040F2A92120A004F09EF92E48006820F456
:10314000E050E16808432B490860207800F008004F
:10315000082820D1206978B12069B0F5805F0BD0B4
:103160002069B0F5A05F07D02069B0F5C05F03D03B
:103170002069B0F5E05F00D104E04FF42C710EA09F
:1031800004F079F91B48006820F46040216940EAA6
:10319000C1001849086000F07BF816490968C1F3BE
:1031A0000311154A515CC840144908600020FFF71C
:1031B00075FD0020CBE600002E2E2F447269766547
:1031C00072732F53544D3332463478785F48414CF4
:1031D0005F4472697665722F5372632F73746D3317
:1031E00032663478785F68616C5F7263632E630067
:1031F000003C0240083802400897000810000020F8
:103200000F2202600D4A126802F0030242600B4A6C
:10321000126802F0F0028260084A126802F4E0527A
:10322000C260064A126802F46042D2080261044A8F
:10323000126802F00F020A6070470000083802406E
:10324000003C024001480068704700001000002068
:1032500000B5FFF7F7FF04490968C1F38221034A6B
:10326000515CC84000BD00000838024018970008B3
:1032700000B5FFF7E7FF04490968C1F34231034A8B
:10328000515CC84000BD0000083802401897000893
:103290002DE9F047002400250026A14625480068B6
:1032A00000F00C0020B1042805D008283AD105E030
:1032B000DFF8849039E0DFF8849036E01D48001F85
:1032C000006800F03F041B48001F006800F4800005
:1032D00078B11A481749091F0968C1F38811A0FB82
:1032E00001700146224600233846FCF7C7FF054619
:1032F0000EE011480F49091F0968C1F38811A0FBAE
:1033000001700146224600233846FCF7B7FF054608
:103310000848001F0068C0F30140401C4600B5FB90
:10332000F6F902E0DFF8109000BF00BF4846BDE8A4
:10333000F0870000083802400024F40000127A00F0
:1033400038B504460CB9012038BD20680F2800D8D4
:1033500003E0F821FBA004F08EF8207800F00100D3
:10336000002870D0606838B16068B0F5803F03D045
:103370006068B0F5A02F00D103E0FD21F1A004F0BA
:103380007AF8FE48006800F00C0004280DD0FB48D5
:10339000006800F00C00082813D1F848001F0068EE
:1033A00000F48000B0F5800F0BD1F44808380068B5
:1033B000C0F34040002859D06068002856D1012051
:1033C000C2E700BF6068B0F5803F08D1EB4808381D
:1033D000006840F48030E949083908601EE0606800
:1033E000B0F5A02F0DD1E5480838006840F48020E2
:1033F000E249083908600846006840F480300860F7
:103400000CE0DE480838006820F48030DB490839D9
:1034100008600846006820F48020086000BF6068EB
:1034200090B1FFF7A7FA054606E0FFF7A3FA401BA5
:10343000642801D9032087E7D04808380068C0F322
:1034400040400028F1D011E0FFF794FA054606E06D
:10345000FFF790FA401B642801D9032074E7C7489E
:1034600008380068C0F340400028F1D1207800F00F
:103470000200022873D1E06810B1E068012800D191
:1034800004E040F22F11AFA003F0F5FF20691F28E0
:1034900000D804E04FF49871AAA003F0ECFFB748FD
:1034A000006800F00C0058B1B448006800F00C004F
:1034B00008281CD1B148001F006800F48000B0B992
:1034C000AE4808380068C0F3400020B1E068012829
:1034D00001D0012038E7A9480838006820F0F8003A
:1034E000216940EAC100A5490839086037E0E06871
:1034F00000B30120A2490860FFF73CFA054606E048
:10350000FFF738FA401B022801D903201CE79B482B
:1035100008380068C0F340000028F1D09748083808
:10352000006820F0F800216940EAC1009349083999
:10353000086014E0002092490860FFF71BFA054676
:1035400006E0FFF717FA401B022801D90320FBE62B
:103550008A4808380068C0F340000028F1D120787C
:1035600000F00800082837D1606910B160690128AF
:1035700000D104E04FF4B87172A003F07CFF6069E1
:10358000A8B101207F490860FFF7F4F9054606E07D
:10359000FFF7F0F9401B022801D90320D4E6774851
:1035A0006C300068C0F340000028F1D014E0002027
:1035B00074490860FFF7DEF9054606E0FFF7DAF91F
:1035C000401B022801D90320BEE66C486C3000681D
:1035D000C0F340000028F1D1207800F00400042856
:1035E00071D1A06828B1A068012802D0A068052880
:1035F00000D104E04FF4CD7152A003F03CFF00BFB6
:10360000002000905D483830006840F080505B49F1
:10361000383108600846006800F08050009000BF14
:1036200000BF5948006840F4807057490860FFF7B0
:10363000A1F9054606E0FFF79DF9401B022801D9D4
:10364000032081E65048006800F480700028F2D022
:1036500000BFA068012808D148486830006840F0E1
:1036600001004649683108601DE0A06805280DD1B9
:1036700042486830006840F0040040496831086002
:103680000846006840F0010008600CE03B486830E4
:10369000006820F001003949683108600846006878
:1036A00020F00400086000BFA068A8B1FFF762F92D
:1036B000054609E0FFF75EF9401B41F28831884278
:1036C00002D9032040E61BE02C4868300068C0F3B4
:1036D00040000028EED013E0FFF74CF9054608E063
:1036E000FFF748F9401B41F28831884201D9032095
:1036F0002AE6224868300068C0F340000028EFD175
:10370000A06928B1A069012802D0A069022800D1CF
:1037100004E040F2CF110BA003F0ADFEA069002839
:1037200079D01648006800F00C00082874D0A06911
:10373000022872D1E06918B1E069B0F5800F25D197
:103740002AE000002E2E2F447269766572732F5383
:10375000544D3332463478785F48414C5F44726947
:103760007665722F5372632F73746D3332663478BB
:10377000785F68616C5F7263632E63000838024093
:1037800000004742800E4742007000404FF4EC7149
:10379000AFF2500003F06FFE206A3F2800D805E02A
:1037A00040F2D911AFF2640003F065FE606A32287E
:1037B00004D3606AB0F5D87F00D805E04FF4ED710E
:1037C000AFF2800003F057FEA06A022808D0A06A7A
:1037D000042805D0A06A062802D0A06A082800D1D3
:1037E00005E040F2DB11AFF2A40003F044FEE06A12
:1037F000022803D3E06A0F2800D805E04FF4EE71E9
:10380000AFF2C00003F037FE00202B490866FFF737
:10381000B1F8054609E04DE04AE034E0FFF7AAF8C8
:10382000401B022801D903208EE524480068C0F31C
:1038300040600028F2D1D4E907010843616A40EAF8
:1038400081110122A06AC2EB500041EA00412C2004
:10385000005D41EA00601949091D08600120164910
:103860000866FFF787F8054606E0FFF783F8401B78
:10387000022801D9032067E510480068C0F34060C2
:103880000028F2D016E000200B490866FFF772F816
:10389000054606E0FFF76EF8401B022801D9032019
:1038A00052E506480068C0F340600028F2D101E00C
:1038B000012049E5002047E500004742003802406A
:1038C0007047704770B504460D463F4920688842EE
:1038D0001BD02068B0F1804F17D03C492068884247
:1038E00013D03B49206888420FD03A49206888426B
:1038F0000BD039492068884207D03849206888426F
:1039000003D037492068884200D104E040F24A6180
:1039100034A003F0B0FD2868A0B12868102811D0A9
:10392000286820280ED0286830280BD02868402826
:1039300008D02868502805D02868602802D0286858
:10394000702800D104E040F24B6126A003F093FD03
:103950006868802801D0686800B904E040F24C61D2
:1039600020A003F088FD00BF94F83800012801D1A1
:10397000022070BD012084F8380000BF022084F8C6
:1039800039002068406820F0700021684860206895
:10399000406829680843216848602068806820F0F2
:1039A0008000216888602068806869680843216811
:1039B0008860012084F8390000BF002084F83800B6
:1039C00000BF00BFD5E70000000001400004004038
:1039D00000080040000C00400010004000140040AF
:1039E000000401402E2E2F447269766572732F53A6
:1039F000544D3332463478785F48414C5F447269A5
:103A00007665722F5372632F73746D333266347818
:103A1000785F68616C5F74696D5F65782E63000024
:103A200010B504460CB9012010BD3A4920688842FF
:103A300033D02068B0F1804F2FD0374920688842BA
:103A40002BD036492068884227D0354920688842E3
:103A500023D03449206888421FD0334920688842E7
:103A60001BD032492068884217D0314920688842EB
:103A700013D03049206888420FD02F4920688842EF
:103A80000BD02E492068884207D02D4920688842F3
:103A900003D02C492068884200D103E0D7212AA016
:103AA00003F0E9FCA06858B1A068102808D0A0680D
:103AB000202805D0A068402802D0A068602800D146
:103AC00003E0D82120A003F0D6FC206938B120699A
:103AD000B0F5807F03D02069B0F5007F00D103E00E
:103AE000D92119A003F0C7FC94F8390028B90020A7
:103AF00084F83800204600F043F8022084F83900AA
:103B0000211D206802F0FAFA012084F83900002013
:103B10008AE7000000000140000400400008004067
:103B2000000C004000100040001400400004014060
:103B3000004001400044014000480140001800409E
:103B4000001C0040002000402E2E2F447269766534
:103B500072732F53544D3332463478785F48414C5A
:103B60005F4472697665722F5372632F73746D337D
:103B700032663478785F68616C5F74696D2E6300BB
:103B800038B504462B492068884218D100BF002070
:103B900000902948006840F0020027490860084664
:103BA000006800F00200009000BF00BF0022052165
:103BB0001D20FFF719F91D20FFF7E0F838E01F4935
:103BC0002068884218D100BF002000901A48006881
:103BD00040F00400184908600846006800F004003E
:103BE000009000BF00BF002205211E20FFF7FCF857
:103BF0001E20FFF7C3F81BE011492068884217D147
:103C000000BF002000900C48006840F008000A49FE
:103C100008600846006800F00800009000BF00BF80
:103C2000002205213220FFF7DFF83220FFF7A6F847
:103C300038BD000000040040403802400008004049
:103C4000000C004010B5044625492068884233D056
:103C50002068B0F1804F2FD02249206888422BD0B5
:103C600021492068884227D020492068884223D0F3
:103C70001F49206888421FD01E49206888421BD0F7
:103C80001D492068884217D01C492068884213D0FB
:103C90001B49206888420FD01A49206888420BD0FF
:103CA00019492068884207D018492068884203D003
:103CB00017492068884200D104E04FF4B17115A083
:103CC00003F0D9FB2068C06840F001002168C8609B
:103CD0002068006840F0010021680860002010BDE5
:103CE000000001400004004000080040000C0040BB
:103CF000001000400014004000040140004001405A
:103D0000004401400048014000180040001C0040F1
:103D1000002000402E2E2F447269766572732F5357
:103D2000544D3332463478785F48414C5F44726971
:103D30007665722F5372632F73746D3332663478E5
:103D4000785F68616C5F74696D2E63002DE9F041E6
:103D500004460D46002600BF94F83800012802D121
:103D60000220BDE8F081012084F8380000BF022065
:103D700084F839002868B0F5805F1AD02868B0F55B
:103D8000005F16D02868A0B12868102811D02868D4
:103D900020280ED0286830280BD02868402808D06A
:103DA0002868502805D02868602802D02868702824
:103DB00000D104E040F67771FEA003F05CFB2068C0
:103DC000866826F0770626F47F4620688660286895
:103DD000502876D00CDC202874D004DC002872D067
:103DE000102871D181E230286FD04028F9D1B9E193
:103DF00060286BD070284BD0B0F5805F03D0B0F551
:103E0000005FEED1A8E0F9492068884233D02068ED
:103E1000B0F1804F2FD0F649206888422BD0F54969
:103E20002068884227D0F4492068884223D0F3498B
:103E3000206888421FD0F249206888421BD0F1498F
:103E40002068884217D0F0492068884213D0EF4993
:103E5000206888420FD0EE49206888420BD0ED4997
:103E60002068884207D0EC492068884203D0EB499B
:103E70002068884200D104E040F68371CDA003F0B1
:103E8000FAFA2068806820F0070021688860B1E2B3
:103E9000D6492068884213D02068B0F1804F0FD0F7
:103EA000D349206888420BD0D2492068884207D085
:103EB000D1492068884203D0D2492068884206D17F
:103EC0000AE0A5E03DE2E4E193E266E2FDE040F6CF
:103ED0008C71B8A003F0CFFA6868B0F5004F09D034
:103EE000686838B1686828B16868022802D06868D4
:103EF0000A2800D104E040F68E71AEA003F0BBFAB0
:103F0000A86858B1A868B0F5805F07D0A868B0F578
:103F1000005F03D0A868B0F5405F00D104E040F630
:103F20008F71A4A003F0A7FAE8680F2800D804E076
:103F30004FF479619FA003F09EFAD5E902136A68F5
:103F4000206802F0CBF92068866826F0770646F0F4
:103F50007706206886604DE2A4492068884213D025
:103F60002068B0F1804F0FD0A149206888420BD063
:103F7000A0492068884207D09F492068884203D022
:103F8000A0492068884200D104E040F6A47189A0CD
:103F900003F071FA6868B0F5004F09D0686838B16D
:103FA000686828B16868022802D068680A2800D1C9
:103FB00004E040F6A6717FA003F05DFAA86858B14E
:103FC000A868B0F5805F07D0A868B0F5005F03D09F
:103FD000A868B0F5405F00D104E040F6A77175A075
:103FE00003F049FAE8680F2800D804E040F6A87109
:103FF00070A003F040FAD5E902136A68206802F065
:104000006DF92068806840F4804021688860F1E1A3
:104010007649206888422BD02068B0F1804F27D0A5
:1040200073492068884223D07249206888421FD093
:104030007149206888421BD072492068884217D095
:1040400071492068884213D07049206888420FD097
:104050006F49206888420BD06E492068884207D09B
:104060006D492068884203D06C492068884200D19D
:1040700004E040F6B6714FA003F0FDF96868B0F5B2
:10408000004F09D0686838B1686828B168680228AC
:1040900002D068680A2800D104E040F6B97145A052
:1040A00003F0E9F9E8680F2800D804E040F6BA7197
:1040B00040A003F0E0F9EA686968206802F0AAFA13
:1040C0005021206802F016F994E14849206888429E
:1040D0001BD02068B0F1804F17D045492068884236
:1040E00013D04449206888420FD043492068884251
:1040F0000BD044492068884207D043492068884251
:1041000003D044492068884200D104E040F6C471DD
:1041100028A003F0B0F96868B0F5004F09D06868CE
:1041200038B1686828B16868022802D068680A282F
:1041300000D104E040F6C7711EA003F09CF9E868C6
:104140000F2800D804E040F6C8711AA003F093F9D4
:10415000EA686968206802F072FA6021206802F05B
:10416000C9F847E121492068884262D02068B0F14F
:10417000804F5ED01E49206888425AD01D49206871
:10418000884256D01C492068884252D01D49206878
:1041900088424ED01C49206888424AD01B4920687A
:1041A000884246D01A492068884242D0194920687E
:1041B000884235E02E2E2F447269766572732F5334
:1041C000544D3332463478785F48414C5F447269CD
:1041D0007665722F5372632F73746D333266347841
:1041E000785F68616C5F74696D2E63000000014048
:1041F0000004004000080040000C00400010004097
:10420000001400400004014000400140004401400F
:104210000048014000180040001C00400020004001
:1042200007D07A492068884203D0794920688842BB
:1042300000D105E040F6D271AFF2880003F01BF91F
:104240006868B0F5004F09D0686838B1686828B16F
:104250006868022802D068680A2800D105E040F6A4
:10426000D571AFF2B00003F006F9E8680F2800D866
:1042700005E040F6D671AFF2C40003F0FCF8EA683E
:104280006968206802F0C6F94021206802F032F81F
:10429000B0E06049206888421BD02068B0F1804FB0
:1042A00017D05D492068884213D05C492068884255
:1042B0000FD05B49206888420BD05A492068884259
:1042C00007D059492068884203D05849206888425D
:1042D00000D105E04FF47E61AFF2281003F0CBF877
:1042E0000021206802F006F884E04A4920688842EC
:1042F0001BD02068B0F1804F17D047492068884212
:1043000013D04649206888420FD04549206888422A
:104310000BD044492068884207D04349206888422E
:1043200003D042492068884200D105E040F6E6719A
:10433000AFF2801003F09FF81021206801F0DAFF3F
:1043400058E03449206888421BD02068B0F1804F83
:1043500017D031492068884213D0304920688842FC
:104360000FD02F49206888420BD02E492068884200
:1043700007D02D492068884203D02C492068884204
:1043800000D105E040F6EC71AFF2D81003F073F8FD
:104390002021206801F0AEFF2CE01E4920688842F1
:1043A0001BD02068B0F1804F17D01B49206888428D
:1043B00013D01A49206888420FD0194920688842D2
:1043C0000BD018492068884207D0174920688842D6
:1043D00003D016492068884200D105E040F6F2710A
:1043E000AFF2302003F047F83021206801F082FF5F
:1043F00000E000BF00BF012084F8390000BF0020AA
:1044000084F8380000BF00BFABE40000001C00408F
:10441000002000400000014000040040000800406F
:10442000000C004000040140004001400018004022
:10443000704710B5044620680069C0F34000D8B149
:104440002068C068C0F34000B0B16FF0020021687E
:104450000861012020762068806900F0030018B10F
:104460002046FFF7E5FF05E0204600F0DDF8204696
:1044700000F011FB0020207620680069C0F3800066
:10448000D8B12068C068C0F38000B0B16FF00400FC
:1044900021680861022020762068806900F440705D
:1044A00018B12046FFF7C4FF05E0204600F0BCF835
:1044B000204600F0F0FA0020207620680069C0F362
:1044C000C000D8B12068C068C0F3C000B0B16FF0C0
:1044D000080021680861042020762068C06900F087
:1044E000030018B12046FFF7A3FF05E0204600F0C7
:1044F0009BF8204600F0CFFA002020762068006963
:10450000C0F30010D8B12068C068C0F30010B0B18B
:104510006FF0100021680861082020762068C069CB
:1045200000F4407018B12046FFF782FF05E02046F6
:1045300000F07AF8204600F0AEFA002020762068DD
:10454000006900F0010058B12068C06800F0010067
:1045500030B16FF0010021680861204600F060FB77
:1045600020680069C0F3C01058B12068C068C0F36B
:10457000C01030B16FF08000216808612046FFF75D
:104580009FF920680069C0F3801058B12068C068A6
:10459000C0F3801030B16FF0400021680861204600
:1045A00000F05CFB20680069C0F3401058B120683F
:1045B000C068C0F3401030B16FF02000216808617E
:1045C0002046FFF77EF910BD10B586B004461421D1
:1045D00001A8FBF79DFE1149206888421CD100BF4D
:1045E000002000900E48006840F008000C49086068
:1045F0000846006800F00800009000BF00BF881463
:104600000190022002900020039004900220059067
:1046100001A90448FDF752FF06B010BD0008004094
:1046200030380240000C02407047000070B504466C
:104630000D46164600BF94F83800012801D102202B
:1046400070BD012084F8380000BF3EB1042E05D0B3
:10465000082E03D00C2E01D0182E00D104E040F615
:1046600048419AA002F007FF2868602802D0286815
:10467000702800D104E040F6494194A002F0FBFE0E
:10468000A86810B1A868022800D104E040F64A41A9
:104690008EA002F0F0FE286910B12869042800D12C
:1046A00004E040F64B4189A002F0E5FE022084F8C8
:1046B000390036B1042E51D0082E70D00C2E6FD197
:1046C000C1E09049206888422BD02068B0F1804F2B
:1046D00027D08D492068884223D08C4920688842A1
:1046E0001FD08B49206888421BD08A4920688842A5
:1046F00017D089492068884213D0884920688842A9
:104700000FD08749206888420BD0864920688842AC
:1047100007D085492068884203D0844920688842B0
:1047200000D104E040F6534168A002F0A4FE2946FF
:10473000206801F0E9FD2068806940F008002168E8
:1047400088612068806920F0040021688861206801
:1047500080692969084321688861ABE0694920685C
:1047600088421BD02068B0F1804F17D0664920687E
:10477000884213D06549206888420FD06449206878
:1047800088420BD063492068884207D0624920687C
:10479000884203D063492068884202D106E01DE0C8
:1047A00087E040F6624149A002F065FE2946206894
:1047B00001F0E2FD2068806940F4006021688861B2
:1047C0002068806920F480602168886120688069A1
:1047D000296940EA0120216888616BE04949206825
:1047E000884213D02068B0F1804F0FD0464920682E
:1047F00088420BD045492068884207D04449206848
:10480000884203D043492068884200D104E040F642
:1048100071412EA002F02FFE2946206801F018FEFB
:104820002068C06940F008002168C8612068C0693C
:1048300020F004002168C8612068C0692969084324
:104840002168C86136E02F492068884213D020686B
:10485000B0F1804F0FD02C49206888420BD02B49F3
:104860002068884207D02A492068884203D0294915
:104870002068884200D104E04FF4486113A002F0A0
:10488000FAFD2946206801F067FE2068C06940F4FF
:1048900000602168C8612068C06920F480602168D8
:1048A000C8612068C069296940EA01202168C8619F
:1048B00000E000BF00BF012084F8390000BF0020E5
:1048C00084F8380000BF00BFBAE600002E2E2F4447
:1048D0007269766572732F53544D3332463478784B
:1048E0005F48414C5F4472697665722F5372632F43
:1048F00073746D3332663478785F68616C5F7469A5
:104900006D2E6300000001400004004000080040DC
:10491000000C004000040140004001400044014000
:104920000048014000180040001C004000200040EA
:1049300010B504460CB9012010BD3B4920688842DF
:1049400033D02068B0F1804F2FD03849206888429A
:104950002BD037492068884227D0364920688842C2
:1049600023D03549206888421FD0344920688842C6
:104970001BD033492068884217D0324920688842CA
:1049800013D03149206888420FD0304920688842CE
:104990000BD02F492068884207D02E4920688842D2
:1049A00003D02D492068884200D104E040F2F13163
:1049B0002AA002F060FDA06858B1A068102808D0B5
:1049C000A068202805D0A068402802D0A0686028F0
:1049D00000D104E040F2F23120A002F04CFD206949
:1049E00038B12069B0F5807F03D02069B0F5007F31
:1049F00000D104E040F2F33118A002F03CFD94F83D
:104A0000390028B9002084F83800204600F042F828
:104A1000022084F83900211D206801F06FFB01207D
:104A200084F83900002087E70000014000040040BE
:104A300000080040000C004000100040001400403E
:104A40000004014000400140004401400048014092
:104A500000180040001C0040002000402E2E2F4473
:104A60007269766572732F53544D333246347878B9
:104A70005F48414C5F4472697665722F5372632FB1
:104A800073746D3332663478785F68616C5F746913
:104A90006D2E63007047704770B505460C46474958
:104AA0002868884207D1002C62D0042C60D0082CE2
:104AB0005ED00C2C5CD02868B0F1804F07D1002C60
:104AC00056D0042C54D0082C52D00C2C50D03C4939
:104AD0002868884207D1002C4AD0042C48D0082CE2
:104AE00046D00C2C44D037492868884206D1ECB314
:104AF000042C3DD0082C3BD00C2C39D032492868EE
:104B0000884206D194B3042C32D0082C30D00C2C1F
:104B10002ED02E492868884206D13CB3042C27D0D9
:104B2000082C25D00C2C23D029492868884202D192
:104B3000E4B1042C1CD027492868884200D1ACB1CC
:104B400025492868884200D184B1244928688842D0
:104B500002D15CB1042C0BD021492868884200D1D5
:104B600024B120492868884203D100E000E004B95C
:104B700004E040F252411CA002F07DFC01222146DB
:104B8000286801F02DFB0D492868884203D00F49A1
:104B90002868884201D1012000E0002028B128685F
:104BA000406C40F40040296848642868006840F080
:104BB000010029680860002070BD0000000001406D
:104BC0000004004000080040000C004000040140C8
:104BD00000400140004401400048014000180040EE
:104BE000001C0040002000402E2E2F447269766584
:104BF00072732F53544D3332463478785F48414CAA
:104C00005F4472697665722F5372632F73746D33CC
:104C100032663478785F68616C5F74696D2E63000A
:104C200010B5044609492068884202D1012008498C
:104C3000086008492068884201D1FEF709F8064952
:104C40002068884201D102F06BF810BD00040040DA
:104C50000000002000100040000C0040704770472A
:104C600070B504462068006800F0100010287BD161
:104C70002068066820684668761C606B00684F49AB
:104C8000884201D120205CE0606B00684C4988427A
:104C900001D1202055E0606B0068484960318842AE
:104CA00001D120204DE0606B0068454960318842A9
:104CB00001D1202045E0606B0068404918318842EE
:104CC00001D1C0143DE0606B00683D491831884255
:104CD00001D1C01435E0606B0068384978318842F2
:104CE00001D1C0142DE0606B0068354978318842ED
:104CF00001D1C01425E0606B006830493031884232
:104D000002D14FF400101CE0606B00682C49303178
:104D1000884202D14FF4001013E0606B006827490D
:104D20009031884202D14FF400100AE0606B0068B5
:104D300023499031884202D14FF4001001E04FF036
:104D400000600546606B0068006820F00100616B40
:104D500009680860606B006819494831884204D9C5
:104D60001748001F056017E022E0606B00681349D8
:104D7000A831884203D91248083805600CE0606BFE
:104D800000680E494831884203D90C481038C56084
:104D900002E00A4810388560A08D616B09684860A0
:104DA000606B0068006840F00100616B0968086092
:104DB0000448A16AFBF76EFE70BD0000106002405F
:104DC00010640240EC0700202DE9F04704462068FB
:104DD00005682068C668206847694FF00008C1462A
:104DE00005F00F08B8F1000F0AD105F0200038B126
:104DF00006F0200020B1204601F0B3FCBDE8F087AA
:104E0000B8F1000F6DD007F0010018B906F49070EA
:104E1000002866D005F0010030B106F4807018B1AA
:104E2000E06B40F00100E06305F0040030B107F0F2
:104E3000010018B1E06B40F00200E06305F00200F1
:104E400030B107F0010018B1E06B40F00400E063FE
:104E500005F0080030B107F0010018B1E06B40F038
:104E60000800E063E06B68B305F0200028B106F0AD
:104E7000200010B1204601F074FC20684069C0F3A6
:104E80008019E06B00F0080010B9B9F1000F22D0D2
:104E9000204601F0F4FB2068406900F04000B0B10A
:104EA0002068406920F0400021684861606B50B183
:104EB0001748616B0865606BFCF7C3FF10B1606B4E
:104EC000016D88470CE02046FFF7C9FE08E0204648
:104ED000FFF7C5FE04E02046FFF7C1FE0020E063B7
:104EE0008CE705F0800030B106F0800018B1204654
:104EF00001F08CFE82E705F0400030B106F0400082
:104F000018B1204601F0CBFB78E700BF76E7000040
:104F10006B66000810B504460CB9012010BDA069ED
:104F200000282AD04849206888420BD04749206889
:104F3000884207D046492068884203D04549206806
:104F4000884200D104E04FF4807143A002F093FA4C
:104F5000A06958B1A069B0F5807F07D0A069B0F50D
:104F6000007F03D0A069B0F5407F00D123E040F27C
:104F7000011139A002F07FFA1DE033492068884210
:104F800013D03249206888420FD0314920688842C6
:104F90000BD040492068884207D03F4920688842AA
:104FA00003D02C492068884200D104E040F205116A
:104FB00029A002F060FAA06818B1A068B0F5805F7F
:104FC00000D104E040F2071123A002F054FAE06996
:104FD00018B1E069B0F5004F00D104E04FF48471DE
:104FE0001DA002F048FA94F8390028B9002084F88E
:104FF0003800204600F052F8242084F83900206858
:10500000C06820F400502168C860204601F0F6FB1B
:105010002068006920F49040216808612068406998
:1050200020F02A00216848612068C06840F40050E0
:105030002168C8600020E063202084F8390084F8EB
:105040003A0000206AE700000010014000440040E0
:1050500000480040001401402E2E2F4472697665EE
:1050600072732F53544D3332463478785F48414C35
:105070005F4472697665722F5372632F73746D3358
:1050800032663478785F68616C5F756172742E6324
:1050900000000000004C00400050004010B586B0F9
:1050A0000446142101A8FBF733F96F4920688842B0
:1050B00039D100BF002000906C48006840F010001B
:1050C0006A4908600846006800F01000009000BFC0
:1050D00000BF00BF0020009064481438006840F012
:1050E00001006249143908600846006800F00100B8
:1050F000009000BF00BF4FF4C060019002200290FA
:1051000001200390032004900720059001A958482E
:10511000FDF7D4F9002205212520FDF765FE2520A5
:10512000FDF72CFE9DE05349206888425AD100BF0C
:10513000002000904D48001F006840F400304B49AB
:10514000091F08600846006800F40030009000BFA6
:1051500000BF00BF0020009044481438006840F0B1
:1051600001004249143908600846006800F0010057
:10517000009000BF00BF0C2001900220029001208F
:105180000390032004900720059001A93848FDF7FB
:1051900095F93948394908604FF0006048600021AE
:1051A00036488160C1604FF4806101610021416136
:1051B0008161C1614FF44031016200214162FCF71D
:1051C00075FF08B1FBF762FE00BF2C486063846383
:1051D00000BF002205212620FDF706FE2620FDF750
:1051E000CDFD3EE02649206888423AD100BF00202C
:1051F00000901E48001F006840F480201B49091FD2
:1052000008600846006800F48020009000BF00BFDE
:1052100000BF0020009015481438006840F00200DC
:105220001249143908600846006800F00200009036
:1052300000BF00BF4FF440600190022002900120A7
:105240000390032004900720059001A90D48FDF765
:1052500035F9002205212720FDF7C6FD2720FDF79F
:105260008DFD06B010BD0000001001404438024022
:1052700000000240004400408860024050070020C7
:10528000004800400004024010B5034693F83A007D
:10529000202829D101B10AB9012010BD00BF93F81F
:1052A0003800012801D10220F7E7012083F83800F7
:1052B00000BF99629A85DA850020D863222083F89E
:1052C0003A0000BF002083F8380000BF186840692A
:1052D00040F001001C6860611868C06840F490707C
:1052E0001C68E0600020D8E70220D6E770B50446CD
:1052F0000D4616462068C06840F010002168C8605E
:1053000032462946204601F0DAF970BD10B53E4A12
:105310000168914275D13D490A783D490B78097879
:10532000491C3B4C21703B49CA540978552903D08C
:1053300000212246117010BD354909780B2900DA89
:10534000F9E73449497850390A2956D2DFE801F0A3
:10535000050D151D252D353D454D2F492D4A921C16
:1053600013680B6052684A6047E02C49294A921C36
:1053700013680B6052684A603FE02949254A921C35
:1053800013680B6052684A6037E02649214A921C34
:1053900013680B6052684A602FE023491D4A921C33
:1053A00013680B6052684A6027E02049194A921C32
:1053B00013680B6052684A601FE01D49154A921C31
:1053C00013680B6052684A6017E01A49114A921C30
:1053D00013680B6052684A600FE017490D4A921C2F
:1053E00013680B6052684A6007E01449094A921C2E
:1053F00013680B6052684A6000BF00BF0021044A76
:10540000117000BF97E70000001001406404002005
:1054100065040020D40B0020140400201C0400208C
:10542000240400202C040020340400203C0400202C
:10543000440400204C040020540400205C0400209C
:105440002DE9F84304460D4616461F464FF0000965
:1054500094F8390020285CD105B116B90120BDE8C7
:10546000F88300BF94F83800012801D10220F6E744
:10547000012084F8380000BF0020E063212084F878
:105480003900FDF777FA8146A684E6842BE0E08CAC
:10549000401EE084A068B0F5805F16D14B46002224
:1054A00080212046009701F0E5FB08B10320D6E7F4
:1054B000A846B8F80000C0F30800216848602069D9
:1054C00008B9AD1C0FE06D1C0DE04B460022802199
:1054D0002046009701F0CEFB08B10320BFE715F886
:1054E000010B21684860E08C0028D0D14B46002297
:1054F00040212046009701F0BDFB08B10320AEE734
:10550000202084F8390000BF002084F8380000BF54
:10551000A5E70220A3E7704700BFFEE710B50F48DC
:105520000F4908600320486000210D488160C16078
:105530004FF4002101614FF440114161002181616C
:105540000121C1610021016241628162C162FBF7F8
:10555000A3FF08B1FBF79AFC10BD000000640040F7
:10556000E004002008B500BF002000900A48006851
:1055700040F40010084908600846006800F4001074
:10558000009000BF00BF002205211020FDF72CFC79
:105590001020FDF7F3FB08BD3038024000B587B09E
:1055A0000B48006806900022012106A802F020F8AE
:1055B0000849086014220649091D01A8FAF78FFE60
:1055C000002101A801F0FBFF0349086007B000BDFE
:1055D000F09600080C0000200800002000B587B0FD
:1055E000142102A8FAF794FE00BF002001906B4836
:1055F000006840F01000694908600846006800F043
:105600001000019000BF00BF00BF002001900846BD
:10561000006840F0040008600846006800F00400DC
:10562000019000BF00BF00BF002001900846006845
:1056300040F0200008600846006800F0200001905B
:1056400000BF00BF00BF002001900846006840F086
:10565000800008600846006800F08000019000BFEC
:1056600000BF00BF002001900846006840F0010024
:1056700008600846006800F00100019000BF00BF0C
:1056800000BF002001900846006840F0020008605A
:105690000846006800F00200019000BF00BF00BF94
:1056A000002001900846006840F04000086008466D
:1056B000006800F04000019000BF00BF00BF002064
:1056C00001900846006840F008000860084600683D
:1056D00000F00800019000BF00BF00224FF4C0613D
:1056E0002F48FDF70BF94FF6FF700290032003904F
:1056F0000020049002A92B48FCF7E0FE4FF6FF7053
:105700000290032003900020049002A92648FCF791
:10571000D5FE4FF6FF100290032003900020049066
:1057200002A91F48FCF7CAFE4FF4C0600290012096
:10573000039000200490059002A91948FCF7BEFED2
:1057400048F2F3100290032003900020049002A975
:105750001648FCF7B3FE4FF2FF00029003200390BF
:105760000020049002A91248FCF7A8FE4FF6FF7033
:105770000290032003900020049002A90D48FCF73A
:105780009DFE4EF6FF7002900320039000200490CF
:1057900002A90948FCF792FE07B000BD303802406C
:1057A00000140240001002400008024000000240C5
:1057B0000004024000180240000C024010B50B48E3
:1057C0000B4908600B484860002109488160C160AE
:1057D0004FF480410161002141618161C161016239
:1057E000FDF7CEF808B1FBF751FB10BD00540040A7
:1057F00024050020A086010000B587B0002003909A
:105800000490059006900190029014481449086095
:1058100042F2CF0048600021114881600921C16037
:1058200000210161FEF7FCF808B1FBF72FFB4FF4F4
:105830008050039003A90A48FEF788FA08B1FBF7E5
:1058400025FB00200190029001A90548FEF73AF8D7
:1058500008B1FBF71BFB07B000BD000000040040CF
:105860007805002000B58DB0002009900A900B90BB
:105870000C90079008901C216846FAF749FD1F48D4
:105880001F4908605320486000211D48816040F690
:105890009F71C16000210161FEF7C2F808B1FBF7FA
:1058A000F5FA4FF48050099009A91548FEF74EFA11
:1058B00008B1FBF7EBFA1248FFF73AF808B1FBF72B
:1058C000E5FA00200790089007A90D48FDF7FAFFB8
:1058D00008B1FBF7DBFA60200090002001900290F5
:1058E0000490002269460648FEF7A0FE08B1FBF7C7
:1058F000CDFA0348FEF768FE0DB000BD0008004079
:10590000B405002000B587B00020039004900590F6
:1059100006900190029014481449086042F2CF00AA
:1059200048600021114881600921C16000210161A6
:10593000FEF776F808B1FBF7A9FA4FF48050039010
:1059400003A90A48FEF702FA08B1FBF79FFA002004
:105950000190029001A90548FDF7B4FF08B1FBF7DB
:1059600095FA07B000BD0000000C0040F0050020D3
:1059700010B50B480B4908604FF4E1304860002136
:1059800008488160C16001610C2141610021816191
:10599000C161FFF7BFFA08B1FBF778FA10BD00004C
:1059A000001001409006002010B50B480B4908601C
:1059B0000B484860002109488160C1604FF4806154
:1059C00001610C21416100218161C161FFF7A2FAEF
:1059D00008B1FBF75BFA10BD00440040D006002080
:1059E000A086010010B50B480B4908604FF4E13068
:1059F0004860002108488160C16001610C2141615B
:105A000000218161C161FFF785FA08B1FBF73EFA19
:105A100010BD0000004800401007002000BFFEE756
:105A20007047000010B51F4890ED001AB1EE411A02
:105A3000F0EE410A1C4890ED111AB0EE410A1B48E5
:105A400001F01EFE1A4890ED001AB1EE411AF0EE78
:105A5000410A184890ED111AB0EE410A164801F0BB
:105A60000FFE164890ED001AB1EE411AF0EE410A11
:105A7000134890ED111AB0EE410A124801F000FEF1
:105A8000114890ED001AB1EE411AF0EE410A0F48AC
:105A900090ED111AB0EE410A0D4801F0F1FD00F051
:105AA000F1F910BDAC00002000080020CC0000205F
:105AB000B40000204808002020010020BC00002085
:105AC0009008002074010020C4000020D8080020A5
:105AD000C801002010B5154890ED001AF0EE410AFB
